:020000040800F2
:10000000005000200D1E0008851B00088D1B0008F5
:10001000951B00089D1B0008A51B000800000000A0
:10002000000000000000000000000000AD1B000800
:10003000B91B000800000000C51B0008D11B000808
:10004000551E0008551E0008551E0008551E0008C4
:10005000DD1B0008E91B0008551E0008551E00089E
:10006000551E0008F51B0008551E0008551E000807
:10007000551E0008551E0008551E0008551E000894
:10008000551E0008551E0008551E0008551E000884
:10009000551E0008551E0008551E0008551E000874
:1000A000051C0008191C00082D1C0008411C000834
:1000B000551C0008551E0008691C0008551E000844
:1000C000551E0008551E0008551E0008551E000844
:1000D000551E0008551E0008551E0008551E000834
:1000E000551E0008551E0008551E0008000000009F
:1000F0000000000000000000000000000000000000
:0C01000000000000000000005FF808F1A3
:1001100010B5054C237833B9044B13B10448AFF341
:1001200000800123237010BDE801002000000000C2
:10013000A48C000808B5034B1BB103490348AFF377
:10014000008008BD00000000EC010020A48C000825
:10015000034613F8012B002AFBD1181A0138704707
:1001600081F0004102E000BF83F0004330B54FEA68
:1001700041044FEA430594EA050F08BF90EA020FD5
:100180001FBF54EA000C55EA020C7FEA645C7FEA68
:10019000655C00F0E2804FEA5454D4EB5555B8BF8B
:1001A0006D420CDD2C4480EA020281EA030382EAFC
:1001B000000083EA010180EA020281EA0303362D8E
:1001C00088BF30BD11F0004F4FEA01314FF4801C61
:1001D0004CEA113102D0404261EB410113F0004F73
:1001E0004FEA03334CEA133302D0524263EB43032A
:1001F00094EA050F00F0A780A4F10104D5F1200EC8
:100200000DDB02FA0EFC22FA05F2801841F1000122
:1002100003FA0EF2801843FA05F359410EE0A5F1F6
:1002200020050EF1200E012A03FA0EFC28BF4CF027
:10023000020C43FA05F3C01851EBE37101F00045DD
:1002400007D54FF0000EDCF1000C7EEB00006EEBEA
:100250000101B1F5801F1BD3B1F5001F0CD3490874
:100260005FEA30004FEA3C0C04F101044FEA4452CB
:1002700012F5800F80F09A80BCF1004F08BF5FEA52
:10028000500C50F1000041EB045141EA050130BD32
:100290005FEA4C0C404141EB0101013C28BFB1F544
:1002A000801FE9D291F0000F04BF01460020B1FA8F
:1002B00081F308BF2033A3F10B03B3F120020CDA62
:1002C0000C3208DD02F1140CC2F10C0201FA0CF040
:1002D00021FA02F10CE002F11402D8BFC2F1200CA5
:1002E00001FA02F120FA0CFCDCBF41EA0C0190405B
:1002F000E41AA2BF01EB0451294330BD6FEA0404A4
:100300001F3C1CDA0C340EDC04F11404C4F120028E
:1003100020FA04F001FA02F340EA030021FA04F3A0
:1003200045EA030130BDC4F10C04C4F1200220FAF7
:1003300002F001FA04F340EA0300294630BD21FA35
:1003400004F0294630BD94F0000F83F4801306BFFB
:1003500081F480110134013D4EE77FEA645C18BFEF
:100360007FEA655C29D094EA050F08BF90EA020F86
:1003700005D054EA000C04BF1946104630BD91EA7E
:10038000030F1EBF0021002030BD5FEA545C05D181
:100390004000494128BF41F0004130BD14F58004C0
:1003A0003CBF01F5801130BD01F0004545F0FE4134
:1003B00041F470014FF0000030BD7FEA645C1ABF69
:1003C000194610467FEA655C1CBF0B46024650EAA0
:1003D000013406BF52EA033591EA030F41F40021CC
:1003E00030BD00BF90F0000F04BF0021704730B552
:1003F0004FF4806404F132044FF000054FF0000127
:1004000050E700BF90F0000F04BF0021704730B5E7
:100410004FF4806404F1320410F0004548BF4042BC
:100420004FF000013EE700BF42004FEAE2014FEA11
:1004300031014FEA02701FBF12F07F4393F07F4FEC
:1004400081F06051704732F07F4208BF704793F0EF
:100450007F4F04BF41F40021704730B54FF4607402
:1004600001F0004521F000411CE700BF50EA010205
:1004700008BF704730B54FF000050AE050EA0102AE
:1004800008BF704730B511F0004502D5404261EB1E
:1004900041014FF4806404F132045FEA915C3FF45F
:1004A000D8AE4FF003025FEADC0C18BF03325FEAFC
:1004B000DC0C18BF033202EBDC02C2F1200300FAAD
:1004C00003FC20FA02F001FA03FE40EA0E0021FAD2
:1004D00002F11444BDE600BF70B54FF0FF0C4CF4C0
:1004E000E06C1CEA11541DBF1CEA135594EA0C0F72
:1004F00095EA0C0F00F0DEF82C4481EA030621EAAD
:100500004C5123EA4C5350EA013518BF52EA0335E7
:1005100041F4801143F4801338D0A0FB02CE4FF099
:100520000005E1FB02E506F00042E0FB03E54FF0C9
:100530000006E1FB03569CF0000F18BF4EF0010EC1
:10054000A4F1FF04B6F5007F64F5407404D25FEABD
:100550004E0E6D4146EB060642EAC62141EA555170
:100560004FEAC52040EA5E504FEACE2EB4F1FD0CB2
:1005700088BFBCF5E06F1ED8BEF1004F08BF5FEA30
:10058000500E50F1000041EB045170BD06F00046E2
:1005900046EA010140EA020081EA0301B4EB5C048F
:1005A000C2BFD4EB0C0541EA045170BD41F4801187
:1005B0004FF0000E013C00F3AB8014F1360FDEBFAC
:1005C000002001F0004170BDC4F10004203C35DA88
:1005D0000C341BDC04F11404C4F1200500FA05F30B
:1005E00020FA04F001FA05F240EA020001F00042AC
:1005F00021F0004110EBD37021FA04F642EB060122
:100600005EEA430E08BF20EAD37070BDC4F10C044B
:10061000C4F1200500FA04F320FA05F001FA04F20F
:1006200040EA020001F0004110EBD37041F10001FB
:100630005EEA430E08BF20EAD37070BDC4F1200506
:1006400000FA05F24EEA020E20FA04F301FA05F26E
:1006500043EA020321FA04F001F0004121FA04F216
:1006600020EA020000EBD3705EEA430E08BF20EAE6
:10067000D37070BD94F0000F0FD101F00046400020
:1006800041EB010111F4801F08BF013CF7D041EAA2
:10069000060195F0000F18BF704703F000465200A6
:1006A00043EB030313F4801F08BF013DF7D043EA77
:1006B0000603704794EA0C0F0CEA135518BF95EA2D
:1006C0000C0F0CD050EA410618BF52EA4306D1D1B4
:1006D00081EA030101F000414FF0000070BD50EAD3
:1006E000410606BF1046194652EA430619D094EA5D
:1006F0000C0F02D150EA013613D195EA0C0F05D147
:1007000052EA03361CBF104619460AD181EA03019A
:1007100001F0004141F0FE4141F470014FF0000052
:1007200070BD41F0FE4141F4780170BD70B54FF0ED
:10073000FF0C4CF4E06C1CEA11541DBF1CEA13556D
:1007400094EA0C0F95EA0C0F00F0A7F8A4EB05044F
:1007500081EA030E52EA03354FEA013100F0888046
:100760004FEA03334FF0805545EA131343EA12630F
:100770004FEA022245EA111545EA10654FEA0026C4
:100780000EF000419D4208BF964244F1FD0404F57D
:10079000407402D25B084FEA3202B61A65EB0305D9
:1007A0005B084FEA32024FF480104FF4002CB6EB96
:1007B000020E75EB030E22BFB61A754640EA0C0016
:1007C0005B084FEA3202B6EB020E75EB030E22BF56
:1007D000B61A754640EA5C005B084FEA3202B6EB97
:1007E000020E75EB030E22BFB61A754640EA9C0056
:1007F0005B084FEA3202B6EB020E75EB030E22BF26
:10080000B61A754640EADC0055EA060E18D04FEAE3
:10081000051545EA16754FEA06164FEAC30343EA83
:1008200052734FEAC2025FEA1C1CC0D111F4801F50
:100830000BD141EA00014FF000004FF0004CB6E749
:1008400011F4801F04BF01430020B4F1FD0C88BFE8
:10085000BCF5E06F3FF6AFAEB5EB030C04BFB6EBF3
:10086000020C5FEA500C50F1000041EB045170BDE6
:100870000EF0004E4EEA113114EB5C04C2BFD4EB13
:100880000C0541EA045170BD41F480114FF0000E97
:10089000013C90E645EA060E8DE60CEA135594EA13
:1008A0000C0F08BF95EA0C0F3FF43BAF94EA0C0F16
:1008B0000AD150EA01347FF434AF95EA0C0F7FF48B
:1008C00025AF104619462CE795EA0C0F06D152EADF
:1008D00003353FF4FDAE1046194622E750EA4106C3
:1008E00018BF52EA43067FF4C5AE50EA41047FF4D4
:1008F0000DAF52EA43057FF4EBAE12E74FF0FF3C39
:1009000006E000BF4FF0010C02E000BF4FF0010C09
:100910004DF804CD4FEA410C7FEA6C5C4FEA430C82
:1009200018BF7FEA6C5C1BD001B050EA410C0CBFD1
:1009300052EA430C91EA030F02BF90EA020F002033
:10094000704710F1000F91EA030F58BF994208BF9A
:1009500090422CBFD8176FEAE37040F00100704757
:100960004FEA410C7FEA6C5C02D150EA013C07D1AE
:100970004FEA430C7FEA6C5CD6D152EA033CD3D0F9
:100980005DF8040B704700BF8446104662468C46F3
:100990001946634600E000BF01B5FFF7B7FF002826
:1009A00048BF10F1000F01BD4DF808EDFFF7F4FF4F
:1009B0000CBF012000205DF808FB00BF4DF808EDDA
:1009C000FFF7EAFF34BF012000205DF808FB00BFFD
:1009D0004DF808EDFFF7E0FF94BF012000205DF81F
:1009E00008FB00BF4DF808EDFFF7CEFF94BF0120D4
:1009F00000205DF808FB00BF4DF808EDFFF7C4FFCD
:100A000034BF012000205DF808FB00BF4FEA410C15
:100A10007FEA6C5C02D150EA013C0AD14FEA430CF8
:100A20007FEA6C5C02D152EA033C02D14FF0000035
:100A300070474FF0010070474FEA410212F5001273
:100A400015D211D56FF47873B3EB625212D94FEA15
:100A5000C12343F0004343EA505311F0004F23FAFF
:100A600002F018BF404270474FF00000704750EA54
:100A7000013005D111F0004008BF6FF00040704711
:100A80004FF00000704700BF4A0011D212F500126B
:100A900011D20DD56FF47873B3EB62520ED44FEAD6
:100AA000C12343F0004343EA505323FA02F0704756
:100AB0004FF00000704750EA013002D14FF0FF3094
:100AC00070474FF0000070474FEA4102B2F1E04337
:100AD00024BFB3F5001CDCF1FE5C0DD901F0004C25
:100AE0004FEAC0024CEA5070B2F1004F40EB830075
:100AF00008BF20F00100704711F0804F21D113F1A1
:100B00003872BCBF01F00040704741F480114FEAD9
:100B10005252C2F11802C2F1200C10FA0CF320FA62
:100B200002F018BF40F001004FEAC1234FEAD3237F
:100B300003FA0CFC40EA0C0023FA02F34FEA4303E9
:100B4000CCE77FEA625307D150EA01331EBF4FF072
:100B5000FE4040F44000704701F0004040F0FE408D
:100B600040F40000704700BF80F0004002E000BF8A
:100B700081F0004142001FBF5FEA410392EA030F88
:100B80007FEA226C7FEA236C6AD04FEA1262D2EBD2
:100B90001363C1BFD218414048404140B8BF5B42D7
:100BA000192B88BF704710F0004F40F4000020F070
:100BB0007F4018BF404211F0004F41F4000121F086
:100BC0007F4118BF494292EA030F3FD0A2F10102D0
:100BD00041FA03FC10EB0C00C3F1200301FA03F10E
:100BE00000F0004302D5494260EB4000B0F5000F31
:100BF00013D3B0F1807F06D340084FEA310102F1F0
:100C00000102FE2A51D2B1F1004F40EBC25008BFA1
:100C100020F0010040EA03007047490040EB00006B
:100C2000013A28BFB0F5000FEDD2B0FA80FCACF16C
:100C3000080CB2EB0C0200FA0CF0AABF00EBC25099
:100C400052421843BCBFD0401843704792F0000F87
:100C500081F4000106BF80F400000132013BB5E7DA
:100C60004FEA41037FEA226C18BF7FEA236C21D050
:100C700092EA030F04D092F0000F08BF08467047B5
:100C800090EA010F1CBF0020704712F07F4F04D183
:100C9000400028BF40F00040704712F100723CBF96
:100CA00000F50000704700F0004343F0FE4040F4C0
:100CB000000070477FEA226216BF08467FEA23637E
:100CC0000146420206BF5FEA412390EA010F40F469
:100CD000800070474FF0000304E000BF10F00043B5
:100CE00048BF40425FEA000C08BF704743F096439C
:100CF00001464FF000001CE050EA010208BF7047B7
:100D00004FF000030AE000BF50EA010208BF70473D
:100D100011F0004302D5404261EB41015FEA010C52
:100D200002BF84460146002043F0B64308BFA3F14A
:100D30008053A3F50003BCFA8CF2083AA3EBC2532C
:100D400010DB01FA02FC634400FA02FCC2F120024B
:100D5000BCF1004F20FA02F243EB020008BF20F082
:100D60000100704702F1200201FA02FCC2F12002E8
:100D700050EA4C0021FA02F243EB020008BF20EADD
:100D8000DC7070474FF0FF0C1CEAD0521EBF1CEA0B
:100D9000D15392EA0C0F93EA0C0F6FD01A4480EAF9
:100DA000010C400218BF5FEA41211ED04FF00063E2
:100DB00043EA501043EA5111A0FB01310CF000400E
:100DC000B1F5000F3EBF490041EAD3715B0040EA34
:100DD000010062F17F02FD2A1DD8B3F1004F40EB04
:100DE000C25008BF20F00100704790F0000F0CF0D7
:100DF000004C08BF49024CEA502040EA51207F3A9B
:100E0000C2BFD2F1FF0340EAC250704740F4000075
:100E10004FF00003013A5DDC12F1190FDCBF00F066
:100E200000407047C2F10002410021FA02F1C2F114
:100E3000200200FA02FC5FEA310040F1000053EAB0
:100E40004C0308BF20EADC70704792F0000F00F0FE
:100E5000004C02BF400010F4000F013AF9D040EA04
:100E60000C0093F0000F01F0004C02BF490011F498
:100E7000000F013BF9D041EA0C018FE70CEAD15396
:100E800092EA0C0F18BF93EA0C0F0AD030F0004C16
:100E900018BF31F0004CD8D180EA010000F00040CA
:100EA000704790F0000F17BF90F0004F084691F088
:100EB000000F91F0004F14D092EA0C0F01D14202C2
:100EC0000FD193EA0C0F03D14B0218BF084608D18B
:100ED00080EA010000F0004040F0FE4040F40000D5
:100EE000704740F0FE4040F4400070474FF0FF0C68
:100EF0001CEAD0521EBF1CEAD15392EA0C0F93EAAF
:100F00000C0F69D0A2EB030280EA010C49024FEA00
:100F1000402037D04FF0805343EA111143EA1013B9
:100F20000CF000408B4238BF5B0042F17D024FF471
:100F3000000C8B4224BF5B1A40EA0C00B3EB510F4C
:100F400024BFA3EB510340EA5C00B3EB910F24BF35
:100F5000A3EB910340EA9C00B3EBD10F24BFA3EBBA
:100F6000D10340EADC001B0118BF5FEA1C1CE0D182
:100F7000FD2A3FF650AF8B4240EBC25008BF20F035
:100F8000010070470CF0004C4CEA50207F32C2BF89
:100F9000D2F1FF0340EAC250704740F400004FF026
:100FA0000003013A37E792F0000F00F0004C02BF57
:100FB000400010F4000F013AF9D040EA0C0093F021
:100FC000000F01F0004C02BF490011F4000F013B7B
:100FD000F9D041EA0C0195E70CEAD15392EA0C0FE3
:100FE00008D142027FF47DAF93EA0C0F7FF470AF1B
:100FF000084676E793EA0C0F04D14B023FF44CAF5E
:1010000008466EE730F0004C18BF31F0004CCAD1F2
:1010100030F000427FF45CAF31F000437FF43CAF2E
:101020005FE700BF4FF0FF3C06E000BF4FF0010C50
:1010300002E000BF4FF0010C4DF804CD4FEA400232
:101040004FEA41037FEA226C18BF7FEA236C11D07C
:1010500001B052EA530C18BF90EA010F58BFB2EB2F
:10106000030088BFC81738BF6FEAE17018BF40F0AF
:10107000010070477FEA226C02D15FEA402C05D163
:101080007FEA236CE4D15FEA412CE1D05DF8040BE8
:10109000704700BF844608466146FFE70FB5FFF77B
:1010A000C9FF002848BF10F1000F0FBD4DF808ED33
:1010B000FFF7F4FF0CBF012000205DF808FB00BF24
:1010C0004DF808EDFFF7EAFF34BF012000205DF87E
:1010D00008FB00BF4DF808EDFFF7E0FF94BF0120CB
:1010E00000205DF808FB00BF4DF808EDFFF7D2FFC8
:1010F00094BF012000205DF808FB00BF4DF808ED0B
:10110000FFF7C8FF34BF012000205DF808FB00BFD7
:101110004FEA4002B2F1FE4F0FD34FF09E03B3EB04
:1011200012620DD94FEA002343F0004310F0004F44
:1011300023FA02F018BF404270474FF0000070479A
:1011400012F1610F01D1420205D110F0004008BF39
:101150006FF0004070474FF00000704738B5002234
:10116000002304460D46FFF729FC28B920462946EE
:10117000BDE8384000F00AB8204605F1004100F013
:1011800005F8404261EB410138BD00BFD0B50022F7
:101190000B4B06460F46FFF79FF9FFF775FC044619
:1011A000FFF720F90022074BFFF796F902460B469E
:1011B00030463946FEF7D8FFFFF766FC2146D0BD22
:1011C0000000F03D0000F04180B582B000AF034662
:1011D000FB80FB88082B31D11A4B9B6803F0080376
:1011E000002B2BD0184B1B681846FFF777FD0246E3
:1011F000164B1B6819461046FFF7BCFC0346184601
:10120000FFF786FF0346104A1360114B1B7801332A
:10121000DAB20F4B1A700C4B1B684AF20F42934222
:1012200003DD0A4B0B4A1A6008E0074B1B6849F2C2
:101230007042934202DC054B074A1A6000BF083730
:10124000BD4680BD000801400C00002000000020C9
:10125000F40200200000C8C20000C84280B582B07D
:1012600000AF78607B681B68054A934203D1012177
:10127000044801F09FFA00BF0837BD4680BD00BF9B
:1012800000040040000C014090B583B000AF7860CE
:101290007B681B7F012B41D1224B1B68002B08D19F
:1012A0007B681B685B6B204A13601E4B01221A602F
:1012B00034E07B681B685B6B1C4A13601B4B1A682D
:1012C000194B1B689A4207D9184B1A68164B1B68B2
:1012D000D31A174A136007E0144B1A68124B1B68A5
:1012E000D31A013B124A1360124B134A1A60114B76
:1012F0001C680F4B1B681846FFF7ECFC03461946A9
:101300002046FFF7F3FD03461A460C4B1A607B6834
:101310001B6800225A62034B00221A6000BF0C3780
:10132000BD4690BDE8020020DC020020E002002063
:10133000E4020020EC02002000247449F0020020A6
:1013400098B500AF00F088FD00F0ACF800F066FA48
:1013500000F0E2F800F0F2F900F07CF9444801F006
:1013600089FE0C21424801F027FF424801F082FE2D
:101370000C21404801F020FF4FF0804364221A64A2
:1013800000213D4802F076F83C4B1B6801333C4A93
:10139000126802FB03F31846FFF734F802460B46C7
:1013A00031A1D1E90001FFF7C1F902460B46104611
:1013B00019464FF00002334BFEF7D6FE02460B46AD
:1013C00010461946FFF738FB03462F4A13602E4B91
:1013D0001B681846FFF716F84FF000022B4BFFF77B
:1013E0007BF802460B462A4C10461946FFF74CFB89
:1013F00003462364244B1A68254BDA621F4B1A6894
:10140000234B9A6201224FF40051224801F0BAF9AD
:10141000214B1B6821491846FFF766FE0346002B47
:1014200016D01D4B1B681E491846FFF753FE034696
:10143000002B0DD000224FF40051164801F0A2F904
:101440000C210C4801F0B8FE1E2000F067FD09E0F9
:101450000C21084801F052FF01224FF400510D48C1
:1014600001F090F9D4E700BF0000000080845E41E5
:10147000040200204C0200209402002008000020FA
:101480000C0000200000F03F040000200000E03FBE
:10149000002C014000100140F002002000701447B1
:1014A00000401C4780B590B000AF07F11803282218
:1014B0000021184604F02BF83B1D00221A605A60E8
:1014C0009A60DA601A610123BB614FF48033FB61DB
:1014D00000237B6307F11803184601F09DF90346CA
:1014E000002B01D000F00AFA0F237B600123BB60C0
:1014F0000023FB6000233B6100237B613B1D002137
:10150000184601F00BFC0346002B01D000F0F6F961
:1015100000BF4037BD4680BD80B596B000AF07F133
:10152000480300221A605A609A60DA6007F14003AB
:1015300000221A605A6007F1240300221A605A60E0
:101540009A60DA601A615A619A613B1D202200217B
:10155000184603F0DCFF3D4B3D4A1A603B4B01222D
:101560005A603A4B00229A60384B40F69F72DA601C
:10157000364B00221A61354B00225A61334B8022D0
:101580009A61324801F026FD0346002B01D000F09D
:10159000B5F94FF48053BB6407F1480319462B4853
:1015A00002F0C2FA0346002B01D000F0A7F9274849
:1015B00001F0AAFD0346002B01D000F09FF90023A3
:1015C0003B6400237B6407F1400319461F4802F087
:1015D0004BFF0346002B01D000F090F960237B62A3
:1015E0000023BB620023FB6200237B630023BB63F9
:1015F0000023FB6307F124030C221946134802F071
:10160000D1F90346002B01D000F078F900237B606C
:101610000023BB600023FB6000233B6100237B6150
:101620004FF40053BB6100233B623B1D1946074842
:1016300002F078FF0346002B01D000F05FF9034869
:1016400000F038FA00BF5837BD4680BD04020020C4
:10165000002C014080B58EB000AF07F128030022B6
:101660001A605A609A60DA6007F1200300221A605B
:101670005A603B1D00221A605A609A60DA601A6153
:101680005A619A612C4B4FF080421A602A4B2722F4
:101690005A60294B00229A60274BC722DA60264BFA
:1016A00000221A61244B80229A61234801F092FCA7
:1016B0000346002B01D000F021F94FF48053BB62A8
:1016C00007F1280319461C4802F02EFA0346002BA6
:1016D00001D000F013F9184801F016FD0346002B65
:1016E00001D000F00BF900233B6200237B6207F17D
:1016F00020031946104802F0B7FE0346002B01D024
:1017000000F0FCF860237B600023BB600023FB60DB
:1017100000237B613B1D0C221946074802F042F969
:101720000346002B01D000F0E9F8034800F0C2F9AD
:1017300000BF3837BD4680BD4C02002080B58AB05E
:1017400000AF07F1180300221A605A609A60DA604D
:1017500007F1100300221A605A603B4600221A600B
:101760005A609A60DA602B4B2B4A1A60294B072289
:101770005A60284B00229A60264B4FF6FF72DA60BF
:10178000244B00221A61234B00229A61214801F068
:1017900021FC0346002B01D000F0B0F84FF4805339
:1017A000BB6107F1180319461A4802F0BDF9034658
:1017B000002B01D000F0A2F8164801F003FE03460A
:1017C000002B01D000F09AF800233B6100237B61DD
:1017D00007F1100319460F4802F046FE0346002B9E
:1017E00001D000F08BF800233B6001237B600023D5
:1017F000BB600023FB603B4600221946054802F00F
:1018000035F80346002B01D000F078F800BF2837E8
:10181000BD4680BD940200200008004080B588B01D
:1018200000AF07F1100300221A605A609A60DA6074
:101830002E4B9B692D4A43F0100393612B4B9B6900
:1018400003F01003FB60FB68284B9B69274A43F0B9
:1018500020039361254B9B6903F02003BB60BB68A9
:10186000224B9B69214A43F0040393611F4B9B6900
:1018700003F004037B607B681C4B9B691B4A43F0AD
:1018800008039361194B9B6903F008033B603B68B5
:1018900000224FF40051164800F074FF4FF400533B
:1018A0003B6101237B610023BB610223FB6107F1E4
:1018B000100319460E4800F0E1FD08233B610D4B73
:1018C0007B610023BB6107F1100319460A4800F051
:1018D000D5FD00220021092000F01BFC092000F0AA
:1018E00034FC00BF2037BD4680BD00BF0010024061
:1018F00000100140000011100008014080B400AF4A
:1019000072B600BF00BFFDE780B584B000AF1D4BCD
:101910009B691C4A43F0010393611A4B9B6903F0D6
:101920000103BB60BB68174BDB69164A43F0805369
:10193000D361144BDB6903F080537B607B6800222A
:101940000021042000F0E5FB042000F0FEFB002253
:101950000021052000F0DDFB052000F0F6FB0A4B1E
:101960005B68FB60FB6823F0E063FB60FB6843F0AF
:101970000073FB60044AFB68536000BF1037BD462C
:1019800080BD00BF001002400000014080B58AB059
:1019900000AF786007F1180300221A605A609A605D
:1019A000DA607B681B683F4A93422CD13E4B9B69AF
:1019B0003D4A43F4006393613B4B9B6903F400632E
:1019C0007B617B6900220021182000F0A2FB182017
:1019D00000F0BBFB00220021192000F09AFB192027
:1019E00000F0B3FB002200211A2000F092FB1A2025
:1019F00000F0ABFB002200211B2000F08AFB1B2023
:101A000000F0A3FB4AE07B681B68B3F1804F14D160
:101A1000254BDB69244A43F00103D361224BDB6988
:101A200003F001033B613B69002200211C2000F010
:101A300070FB1C2000F089FB30E07B681B681B4AB0
:101A400093422BD1184BDB69174A43F00403D3614F
:101A5000154BDB6903F00403FB60FB68124B9B69C9
:101A6000114A43F0080393610F4B9B6903F008038D
:101A7000BB60BB684023BB610023FB6100233B626A
:101A800007F1180319460A4800F0F8FC002200216B
:101A90001E2000F03EFB1E2000F057FB00BF283741
:101AA000BD4680BD002C01400010024000080040EF
:101AB000000C014080B58AB000AF786007F11403D4
:101AC00000221A605A609A60DA607B681B68284AB4
:101AD000934219D1274B9B69264A43F00403936133
:101AE000244B9B6903F004033B613B694FF40063A3
:101AF0007B610223BB6102233B6207F11403194699
:101B00001D4800F0BBFC2FE07B681B68B3F1804FE1
:101B10002AD1184B9B69174A43F008039361154B70
:101B20009B6903F00803FB60FB684FF400637B6173
:101B30000223BB6102233B6207F1140319460F48DD
:101B400000F09CFC0E4B5B687B627B6A23F4407365
:101B50007B627B6A43F0E0637B627B6A43F40073E1
:101B60007B62074A7B6A536000BF2837BD4680BD51
:101B7000002C01400010024000080140000C014010
:101B80000000014080B400AF00BFFDE780B400AFAB
:101B900000BFFDE780B400AF00BFFDE780B400AF39
:101BA00000BFFDE780B400AF00BFFDE780B400AF29
:101BB00000BFBD4680BC704780B400AF00BFBD46CB
:101BC00080BC704780B400AF00BFBD4680BC70478A
:101BD00080B500AF00F086F900BF80BD80B500AFD2
:101BE00000F0CEFA00BF80BD80B400AF00BFBD469C
:101BF00080BC704780B500AF082000F0F5FD00BF45
:101C000080BD000080B500AF024801F03FFD00BF7D
:101C100080BD00BF0402002080B500AF024801F083
:101C200035FD00BF80BD00BF0402002080B500AFBD
:101C3000024801F02BFD00BF80BD00BF0402002060
:101C400080B500AF024801F021FD00BF80BD00BF9C
:101C50000402002080B500AF024801F017FD00BF6C
:101C600080BD00BF4C02002080B500AF024801F0EB
:101C70000DFD00BF80BD00BF9402002080B400AF06
:101C800001231846BD4680BC704780B582B000AFC6
:101C90007860396003F08EFC034616221A604FF01C
:101CA000FF3318460837BD4680BD80B582B000AF0F
:101CB00078604FF0FF317868FFF7E7FF00BFFDE77E
:101CC00080B586B000AFF860B9607A6000237B61B0
:101CD0000AE0AFF300800146BB685A1CBA60CAB282
:101CE0001A707B6901337B617A697B689A42F0DB09
:101CF0007B6818461837BD4680BD80B586B000AFFA
:101D0000F860B9607A6000237B6109E0BB685A1C07
:101D1000BA601B781846AFF300807B6901337B61A2
:101D20007A697B689A42F1DB7B6818461837BD46B2
:101D300080BD80B483B000AF78604FF0FF331846A9
:101D40000C37BD4680BC704780B483B000AF78606C
:101D500039603B684FF400525A60002318460C3734
:101D6000BD4680BC704780B483B000AF786001236B
:101D700018460C37BD4680BC704780B485B000AFB4
:101D8000F860B9607A60002318461437BD4680BCFD
:101D90007047000080B586B000AF7860144A154BDC
:101DA000D31A7B617B693B61134B1B68002B02D10B
:101DB000114B124A1A60104B1A687B6813443A6937
:101DC0009A4207D203F0F6FB03460C221A604FF04A
:101DD000FF3309E0084B1B68FB60074B1A687B6800
:101DE0001344054A1360FB6818461837BD4680BD8A
:101DF0000050002000040000F802002070040020C1
:101E000080B400AF00BFBD4680BC7047FFF7F8FF4D
:101E10000B480C490C4A002302E0D458C450043348
:101E2000C4188C42F9D3094A094C002301E013601D
:101E30000432A242FBD303F0C3FBFFF781FA7047E1
:101E400000000020E401002020910008E8010020AB
:101E50006C040020FEE7000080B500AF084B1B6853
:101E6000074A43F010031360032000F047F90F20E6
:101E700000F008F8FFF748FD0023184680BD00BFBA
:101E80000020024080B582B000AF7860124B1A6823
:101E9000124B1B7819464FF47A73B3FBF1F3B2FB84
:101EA000F3F3184600F05FF90346002B01D001233D
:101EB0000EE07B680F2B0AD8002279684FF0FF30C4
:101EC00000F027F9064A7B681360002300E0012335
:101ED00018460837BD4680BD1000002018000020BD
:101EE0001400002080B400AF054B1B781A46054B48
:101EF0001B681344034A136000BFBD4680BC704793
:101F000018000020FC02002080B400AF024B1B68C8
:101F10001846BD4680BC7047FC02002080B584B0E6
:101F200000AF7860FFF7F0FFB8607B68FB60FB688C
:101F3000B3F1FF3F05D00A4B1B781A46FB681344E8
:101F4000FB6000BFFFF7E0FF0246BB68D31AFA68E8
:101F50009A42F7D800BF00BF1037BD4680BD00BF12
:101F60001800002080B485B000AF78607B6803F073
:101F70000703FB600C4BDB68BB60BA684FF6FF03DE
:101F80001340BB60FB681A02BB68134343F0BF6396
:101F900043F40033BB60044ABB68D36000BF14370E
:101FA000BD4680BC704700BF00ED00E080B400AFCC
:101FB000044BDB681B0A03F007031846BD4680BCD0
:101FC000704700BF00ED00E080B483B000AF03466F
:101FD000FB7197F90730002B0BDBFB7903F01F0235
:101FE000064997F907305B09012000FA02F241F82F
:101FF000232000BF0C37BD4680BC704700E100E0E5
:1020000080B483B000AF03463960FB7197F90730A5
:10201000002B0ADB3B68DAB20C4997F90730120152
:10202000D2B20B4483F800230AE03B68DAB20849D5
:10203000FB7903F00F03043B1201D2B20B441A7672
:1020400000BF0C37BD4680BC704700BF00E100E018
:1020500000ED00E080B489B000AFF860B9607A604C
:10206000FB6803F00703FB61FB69C3F10703042B63
:1020700028BF0423BB61FB690433062B02D9FB692B
:10208000033B00E000237B614FF0FF32BB6902FAA3
:1020900003F3DA43BB681A407B699A404FF0FF3183
:1020A0007B6901FA03F3D9437B680B40134318465D
:1020B0002437BD4680BC704780B582B000AF7860E1
:1020C0007B68013BB3F1807F01D301230FE00A4A13
:1020D0007B68013B53600F214FF0FF30FFF790FF0B
:1020E000054B00229A60044B07221A600023184611
:1020F0000837BD4680BD00BF10E000E080B582B06B
:1021000000AF78607868FFF72DFF00BF0837BD4645
:1021100080BD80B586B000AF0346B9607A60FB73BE
:1021200000237B61FFF742FF78617A68B9687869BC
:10213000FFF790FF024697F90F3011461846FFF758
:102140005FFF00BF1837BD4680BD80B582B000AFCD
:102150000346FB7197F907301846FFF735FF00BFBC
:102160000837BD4680BD80B582B000AF7860786822
:10217000FFF7A2FF034618460837BD4680BD0000A2
:1021800080B582B000AF00237B606B4BDB6803F04F
:102190001003002B05D1684BDB6803F00403002B10
:1021A0000ED0664B9B687B60644B4FF0FF329A60A9
:1021B00000F0F4F8786800F0CCF8604B00221A7058
:1021C0005D4BDB6803F02003002B00F0A0805A4B2E
:1021D0002022DA60594B1B78DBB2002B00F097808D
:1021E000564B1B78DBB2012B2DD1544B5B68013B66
:1021F000524A5360514B5B68002B17D04F4B9B6882
:102200007B60786800F09CF84C4B9B6803F580631A
:102210007B604A4A7B689360474B1B69464A23F0C0
:1022200002031361786800F009F970E04FF0FF33A2
:102230007B60424A7B689360404B00221A7078684A
:1022400000F07EF863E03D4B1B78DBB2022B0CD133
:10225000394B1B69384A23F004031361002000F056
:102260006FF8364B00221A7051E0344B5B68013B2B
:10227000324A5360314B5B68002B24D02F4B9B6854
:1022800002332E4A93602D4B9B687B602B4BD3E926
:1022900004014FF000024FF00003020C42EA014239
:1022A0000B0C2649C1E90423234B1B69224A23F066
:1022B00001031361214BD3E9042393B219467868D3
:1022C00000F050F823E01D4B1B78DBB2032B05D147
:1022D0001A4B9B68184600F033F811E0174B1B7837
:1022E000DBB2042B06D1154B9B68023B184600F06D
:1022F00027F805E0114B9B68063B184600F020F8D4
:102300000E4B4FF0FF329A600C4B00221A700B4BB1
:102310001B78DBB2002B0BD1074B1B69064A23F05D
:1023200007031361044B1B69034A23F4A053136191
:1023300000BF0837BD4680BD0020024000030020DA
:1023400080B483B000AF786000BF0C37BD4680BC5E
:10235000704780B483B000AF786000BF0C37BD46D3
:1023600080BC704780B483B000AF78600B467B8040
:10237000084B0022DA61084B1B69074A43F001034E
:1023800013617B687A881A8000BF0C37BD4680BC19
:10239000704700BF000300200020024080B483B0DB
:1023A00000AF00237B60234BDB6803F01003002B9E
:1023B00009D0214BDB6943F002031F4AD3617B68DC
:1023C00043F010037B601B4BDB6803F00403002B1E
:1023D00009D0194BDB6943F00103174AD3617B68CD
:1023E00043F004037B60134BDB6903F00103002B14
:1023F0000BD0114BDB6943F004030F4AD3610D4B43
:10240000DB690C4A23F00103D3617B6840F20112BF
:10241000934206D1074BDB69064A23F00103D361DF
:1024200002E0044A7B68D36000BF0C37BD4680BC25
:10243000704700BF002002400003002080B483B03A
:1024400000AF78600B4B0022DA610B4B1B690A4A24
:1024500043F002031361084A7B685361064B1B6912
:10246000054A43F04003136100BF0C37BD4680BCF2
:10247000704700BF000300200020024080B48BB0F2
:1024800000AF7860396000237B6200233B6269E122
:1024900001227B6A02FA03F3FB613B681B68FA695D
:1024A0001340BB61BA69FB699A4240F058813B68AE
:1024B0005B689A4A93425ED0984A934275D8984A8C
:1024C000934258D0964A93426FD8964A934252D03C
:1024D000944A934269D8944A93424CD0924A934288
:1024E00063D8924A934246D0904A93425DD8122BC9
:1024F0002AD8122B59D801A252F823F077250008C8
:102500005125000863250008A5250008AB25000813
:10251000AB250008AB250008AB250008AB2500085B
:10252000AB250008AB250008AB250008AB2500084B
:10253000AB250008AB250008AB250008AB2500083B
:10254000592500086D250008794A934213D02CE0E4
:102550003B68DB683B6229E03B68DB6804333B6235
:1025600024E03B68DB6808333B621FE03B68DB68C4
:102570000C333B621AE03B689B68002B02D10423BA
:102580003B6213E03B689B68012B05D108233B624B
:102590007B68FA691A6109E008233B627B68FA6983
:1025A0005A6103E000233B6200E000BFBB69FF2BE0
:1025B00001D87B6801E07B6804337B61BB69FF2B3A
:1025C00002D87B6A9B0002E07B6A083B9B003B6170
:1025D0007B691A680F213B6901FA03F3DB431A4058
:1025E000396A3B6901FA03F31A437B691A603B6855
:1025F0005B6803F08053002B00F0B1804D4B9B696A
:102600004C4A43F0010393614A4B9B6903F0010379
:10261000BB60BB68484A7B6A9B08023352F8233090
:10262000FB607B6A03F003039B000F2202FA03F3B3
:10263000DB43FA681340FB607B68404A934213D047
:102640007B683F4A93420DD07B683E4A934207D055
:102650007B683D4A934201D1032306E0042304E052
:10266000022302E0012300E000237A6A02F0030261
:1026700092009340FA681343FB602F497B6A9B08E2
:102680000233FA6841F823203B685B6803F4801347
:10269000002B06D02D4B9A682C49BB6913438B60E5
:1026A00006E02A4B9A68BB69DB43284913408B60DC
:1026B0003B685B6803F40013002B06D0234BDA68F9
:1026C0002249BB691343CB6006E0204BDA68BB6943
:1026D000DB431E491340CB603B685B6803F4003367
:1026E000002B06D0194B5A681849BB6913434B603D
:1026F00006E0164B5A68BB69DB43144913404B6034
:102700003B685B6803F48033002B21D00F4B1A68C1
:102710000E49BB6913430B6021E000BF000032107B
:1027200000003110000022100000211000001210E3
:10273000000011100010024000000140000801409C
:10274000000C014000100140001401400004014051
:102750000B4B1A68BB69DB43094913400B607B6A6A
:1027600001337B623B681A687B6A22FA03F3002B11
:102770007FF48EAE00BF00BF2C37BD4680BC7047D3
:102780000004014080B483B000AF78600B467B80CA
:1027900013467B707B78002B03D07A887B681A61A4
:1027A00003E07B881A047B681A6100BF0C37BD46C2
:1027B00080BC704780B485B000AF78600B467B80EA
:1027C0007B68DB68FB607A88FB6813401A04FB684F
:1027D000D9437B880B401A437B681A6100BF1437CA
:1027E000BD4680BC7047000080B582B000AF034694
:1027F000FB80084B5A69FB881340002B06D0054A22
:10280000FB885361FB881846FEF7DEFC00BF0837E3
:10281000BD4680BD0004014080B586B000AF786041
:102820007B68002B01D1012372E27B681B6803F0F7
:102830000103002B00F08780924B5B6803F00C03D0
:10284000042B0CD08F4B5B6803F00C03082B12D1C8
:102850008C4B5B6803F48033B3F5803F0BD1894B1D
:102860001B6803F40033002B6CD07B685B68002B83
:1028700068D101234CE27B685B68B3F5803F06D1E9
:10288000804B1B687F4A43F4803313602EE07B68E3
:102890005B68002B0CD17B4B1B687A4A23F4803396
:1028A0001360784B1B68774A23F4802313601DE084
:1028B0007B685B68B3F5A02F0CD1724B1B68714A23
:1028C00043F4802313606F4B1B686E4A43F48033DC
:1028D00013600BE06B4B1B686A4A23F48033136070
:1028E000684B1B68674A23F4802313607B685B682E
:1028F000002B13D0FFF708FB386108E0FFF704FB5B
:1029000002463B69D31A642B01D9032300E25D4BD5
:102910001B6803F40033002BF0D014E0FFF7F4FA47
:10292000386108E0FFF7F0FA02463B69D31A642BDE
:1029300001D90323ECE1534B1B6803F40033002B54
:10294000F0D100E000BF7B681B6803F00203002B9E
:1029500063D04C4B5B6803F00C03002B0BD0494B4E
:102960005B6803F00C03082B1CD1464B5B6803F437
:102970008033002B16D1434B1B6803F00203002B5E
:1029800005D07B681B69012B01D00123C0E13D4BC1
:102990001B6823F0F8027B685B69DB00394913434D
:1029A0000B603AE07B681B69002B20D0364B01227C
:1029B0001A60FFF7A9FA386108E0FFF7A5FA0246A6
:1029C0003B69D31A022B01D90323A1E12D4B1B68CC
:1029D00003F00203002BF0D02A4B1B6823F0F8020F
:1029E0007B685B69DB00274913430B6015E0264BCE
:1029F00000221A60FFF788FA386108E0FFF784FACE
:102A000002463B69D31A022B01D9032380E11D4BF7
:102A10001B6803F00203002BF0D17B681B6803F0F6
:102A20000803002B3AD07B689B69002B19D0174B09
:102A300001221A60FFF768FA386108E0FFF764FACC
:102A400002463B69D31A022B01D9032360E10D4BE7
:102A50005B6A03F00203002BF0D0012000F09CFA27
:102A60001CE00A4B00221A60FFF74EFA38610FE0B3
:102A7000FFF74AFA02463B69D31A022B08D903230F
:102A800046E100BF00100240000042428004424282
:102A9000924B5B6A03F00203002BE9D17B681B6851
:102AA00003F00403002B00F0A6800023FB758B4B82
:102AB000DB6903F08053002B0DD1884BDB69874A1B
:102AC00043F08053D361854BDB6903F08053BB60D7
:102AD000BB680123FB75824B1B6803F48073002BDA
:102AE00018D17F4B1B687E4A43F480731360FFF755
:102AF0000BFA386108E0FFF707FA02463B69D31A80
:102B0000642B01D9032303E1754B1B6803F4807325
:102B1000002BF0D07B68DB68012B06D16F4B1B6A62
:102B20006E4A43F0010313622DE07B68DB68002BE3
:102B30000CD16A4B1B6A694A23F001031362674B8D
:102B40001B6A664A23F0040313621CE07B68DB689F
:102B5000052B0CD1614B1B6A604A43F004031362DE
:102B60005E4B1B6A5D4A43F0010313620BE05B4B53
:102B70001B6A5A4A23F001031362584B1B6A574AD7
:102B800023F0040313627B68DB68002B15D0FFF78A
:102B9000BBF938610AE0FFF7B7F902463B69D31A7F
:102BA00041F28832934201D90323B1E04B4B1B6AB7
:102BB00003F00203002BEED014E0FFF7A5F9386113
:102BC0000AE0FFF7A1F902463B69D31A41F28832C5
:102BD000934201D903239BE0404B1B6A03F002039D
:102BE000002BEED1FB7D012B05D13C4BDB693B4A31
:102BF00023F08053D3617B68DB69002B00F0878072
:102C0000364B5B6803F00C03082B61D07B68DB69F3
:102C1000022B46D1334B00221A60FFF775F9386159
:102C200008E0FFF771F902463B69D31A022B01D97C
:102C300003236DE0294B1B6803F00073002BF0D1D8
:102C40007B681B6AB3F5803F08D1244B5B6823F493
:102C500000327B689B68214913434B601F4B5B68C4
:102C600023F474127B68196A7B685B6A0B431B4907
:102C700013434B601B4B01221A60FFF745F9386183
:102C800008E0FFF741F902463B69D31A022B01D94C
:102C900003233DE0114B1B6803F00073002BF0D0C1
:102CA00035E0104B00221A60FFF72EF9386108E07A
:102CB000FFF72AF902463B69D31A022B01D90323F5
:102CC00026E0064B1B6803F00073002BF0D11EE0DA
:102CD0007B68DB69012B07D1012319E0001002405A
:102CE00000700040600042420B4B5B68FB60FB6879
:102CF00003F480327B681B6A9A4206D1FB6803F4B6
:102D000070127B685B6A9A4201D0012300E00023C5
:102D100018461837BD4680BD0010024080B584B00B
:102D200000AF786039607B68002B01D10123D0E0CF
:102D30006A4B1B6803F007033A689A4210D9674B45
:102D40001B6823F0070265493B6813430B60634B24
:102D50001B6803F007033A689A4201D00123B8E0E8
:102D60007B681B6803F00203002B20D07B681B6884
:102D700003F00403002B05D0594B5B68584A43F419
:102D8000E06353607B681B6803F00803002B05D0E9
:102D9000534B5B68524A43F460535360504B5B683B
:102DA00023F0F0027B689B684D4913434B607B68BE
:102DB0001B6803F00103002B40D07B685B68012B8C
:102DC00007D1474B1B6803F40033002B15D10123B7
:102DD0007FE07B685B68022B07D1414B1B6803F0E7
:102DE0000073002B09D1012373E03D4B1B6803F0F6
:102DF0000203002B01D101236BE0394B5B6823F008
:102E000003027B685B68364913434B60FFF77CF82D
:102E1000F8600AE0FFF778F80246FB68D31A41F23F
:102E20008832934201D9032353E02D4B5B6803F0B2
:102E30000C027B685B689B009A42EBD1274B1B68B6
:102E400003F007033A689A4210D2244B1B6823F020
:102E5000070222493B6813430B60204B1B6803F0B9
:102E600007033A689A4201D0012332E07B681B686D
:102E700003F00403002B08D0194B5B6823F4E062D5
:102E80007B68DB68164913434B607B681B6803F063
:102E90000803002B09D0124B5B6823F460527B6857
:102EA0001B69DB000E4913434B6000F021F802461A
:102EB0000B4B5B681B0903F00F030A49CB5C22FA3A
:102EC00003F3094A1360094B1B681846FEF7DAFF43
:102ED000002318461037BD4680BD00BF00200240C9
:102EE00000100240C08C00081000002014000020D8
:102EF00080B487B000AF0023FB600023BB600023D9
:102F00007B6100237B6000233B611E4B5B68FB60A1
:102F1000FB6803F00C03042B02D0082B03D027E03E
:102F2000194B3B6127E0FB689B0C03F00F03174A2A
:102F3000D35C7B60FB6803F48033002B10D0114B13
:102F40005B685B0C03F00103114AD35CBB607B68D8
:102F50000D4A03FB02F2BB68B2FBF3F37B6104E0B2
:102F60007B680C4A02FB03F37B617B693B6102E0F7
:102F7000054B3B6100BF3B6918461C37BD4680BC12
:102F8000704700BF0010024000127A00D08C000889
:102F9000E08C000800093D0080B485B000AF786087
:102FA0000A4B1B680A4AA2FB03235B0A7A6802FBEE
:102FB00003F3FB6000BFFB685A1EFA60002BF9D1D7
:102FC00000BF00BF1437BD4680BC70471000002012
:102FD000D34D621080B582B000AF78607B68002B63
:102FE00001D1012341E07B6893F83D30DBB2002B37
:102FF00006D17B68002283F83C207868FEF7C6FC87
:103000007B68022283F83D207B681A687B68043362
:103010001946104600F06AFE7B68012283F84620BC
:103020007B68012283F83E207B68012283F83F20E1
:103030007B68012283F840207B68012283F84120CD
:103040007B68012283F842207B68012283F84320B9
:103050007B68012283F844207B68012283F84520A5
:103060007B68012283F83D20002318460837BD46BF
:1030700080BD000080B485B000AF78607B6893F8B5
:103080003D30DBB2012B01D0012332E07B6802220C
:1030900083F83D207B681B68184A93420ED07B68FA
:1030A0001B68B3F1804F09D07B681B68144A9342B8
:1030B00004D07B681B68134A934211D17B681B685C
:1030C0009B6803F00703FB60FB68062B10D07B684E
:1030D0001B681A687B681B6842F001021A6007E0EF
:1030E0007B681B681A687B681B6842F001021A60E3
:1030F000002318461437BD4680BC7047002C0140A1
:10310000000400400008004080B582B000AF786045
:103110007B68002B01D1012341E07B6893F83D30AF
:10312000DBB2002B06D17B68002283F83C20786854
:1031300000F039F87B68022283F83D207B681A682A
:103140007B6804331946104600F0D0FD7B680122ED
:1031500083F846207B68012283F83E207B680122A9
:1031600083F83F207B68012283F840207B6801229E
:1031700083F841207B68012283F842207B6801228A
:1031800083F843207B68012283F844207B68012276
:1031900083F845207B68012283F83D2000231846F0
:1031A0000837BD4680BD80B483B000AF786000BFF3
:1031B0000C37BD4680BC704780B584B000AF7860E6
:1031C00039603B68002B09D17B6893F83E30DBB255
:1031D000012B14BF01230023DBB222E03B68042B48
:1031E00009D17B6893F83F30DBB2012B14BF012378
:1031F0000023DBB215E03B68082B09D17B6893F80C
:103200004030DBB2012B14BF01230023DBB208E006
:103210007B6893F84130DBB2012B14BF01230023FC
:10322000DBB2002B01D001235EE03B68002B04D110
:103230007B68022283F83E2013E03B68042B04D114
:103240007B68022283F83F200BE03B68082B04D107
:103250007B68022283F8402003E07B68022283F827
:1032600041207B681B6801223968184601F0D7F8B5
:103270007B681B681E4A934207D17B681B685A6CA7
:103280007B681B6842F400425A647B681B68184ADA
:1032900093420ED07B681B68B3F1804F09D07B68E6
:1032A0001B68144A934204D07B681B68124A9342FD
:1032B00011D17B681B689B6803F00703FB60FB6808
:1032C000062B10D07B681B681A687B681B6842F06D
:1032D00001021A6007E07B681B681A687B681B683C
:1032E00042F001021A60002318461037BD4680BD27
:1032F000002C0140000400400008004080B582B06E
:1033000000AF786039607B681B6800223968184616
:1033100001F085F87B681B68294A934217D17B68C6
:103320001B681A6A41F211131340002B0FD17B68FE
:103330001B681A6A40F244431340002B07D17B6894
:103340001B685A6C7B681B6822F400425A647B68D5
:103350001B681A6A41F211131340002B0FD17B68CE
:103360001B681A6A40F244431340002B07D17B6864
:103370001B681A687B681B6822F001021A603B68B0
:10338000002B04D17B68012283F83E2013E03B68C8
:10339000042B04D17B68012283F83F200BE03B68BB
:1033A000082B04D17B68012283F8402003E07B686E
:1033B000012283F84120002318460837BD4680BD0E
:1033C000002C014080B582B000AF78607B68002B94
:1033D00001D1012341E07B6893F83D30DBB2002B43
:1033E00006D17B68002283F83C20786800F039F829
:1033F0007B68022283F83D207B681A687B6804336F
:103400001946104600F072FC7B68012283F84620C2
:103410007B68012283F83E207B68012283F83F20ED
:103420007B68012283F840207B68012283F84120D9
:103430007B68012283F842207B68012283F84320C5
:103440007B68012283F844207B68012283F84520B1
:103450007B68012283F83D20002318460837BD46CB
:1034600080BD80B483B000AF786000BF0C37BD462C
:1034700080BC704780B584B000AF786039600023AD
:10348000FB733B68002B04D17B6893F83E30DBB2C2
:1034900013E03B68042B04D17B6893F83F30DBB228
:1034A0000BE03B68082B04D17B6893F84030DBB21B
:1034B00003E07B6893F84130DBB2BB733B68002BC1
:1034C00004D17B6893F84230DBB213E03B68042BF5
:1034D00004D17B6893F84330DBB20BE03B68082BE8
:1034E00004D17B6893F84430DBB203E07B6893F847
:1034F0004530DBB27B73BB7B012B02D17B7B012B85
:1035000001D00123B8E03B68002B04D17B68022284
:1035100083F83E2013E03B68042B04D17B68022231
:1035200083F83F200BE03B68082B04D17B68022224
:1035300083F8402003E07B68022283F841203B6847
:10354000002B04D17B68022283F8422013E03B6801
:10355000042B04D17B68022283F843200BE03B68F4
:10356000082B04D17B68022283F8442003E07B68A7
:10357000022283F845203B680C2B41D801A252F867
:1035800023F000BFB93500080136000801360008F5
:1035900001360008CB350008013600080136000866
:1035A00001360008DD350008013600080136000844
:1035B00001360008EF3500087B681B68DA687B6815
:1035C0001B6842F00202DA601DE07B681B68DA6863
:1035D0007B681B6842F00402DA6014E07B681B68B9
:1035E000DA687B681B6842F00802DA600BE07B68EF
:1035F0001B68DA687B681B6842F01002DA6002E040
:103600000123FB7300BFFB7B002B34D17B681B685D
:1036100001223968184600F002FF7B681B68184ACF
:1036200093420ED07B681B68B3F1804F09D07B6852
:103630001B68144A934204D07B681B68124A934269
:1036400011D17B681B689B6803F00703BB60BB68F4
:10365000062B10D07B681B681A687B681B6842F0D9
:1036600001021A6007E07B681B681A687B681B68A8
:1036700042F001021A60FB7B18461037BD4680BD40
:10368000002C0140000400400008004080B584B0D8
:1036900000AF78607B681B68DB68FB607B681B6839
:1036A0001B69BB60BB6803F00203002B20D0FB68E2
:1036B00003F00203002B1BD07B681B686FF0020233
:1036C0001A617B6801221A777B681B689B6903F08B
:1036D0000303002B03D07868FDF7D6FD05E078687A
:1036E00000F0E9FA786800F0EFFA7B6800221A77B8
:1036F000BB6803F00403002B20D0FB6803F0040335
:10370000002B1BD07B681B686FF004021A617B687A
:1037100002221A777B681B689B6903F44073002BB5
:1037200003D07868FDF7B0FD05E0786800F0C3FAD3
:10373000786800F0C9FA7B6800221A77BB6803F04A
:103740000803002B20D0FB6803F00803002B1BD0DC
:103750007B681B686FF008021A617B6804221A7785
:103760007B681B68DB6903F00303002B03D07868D8
:10377000FDF78AFD05E0786800F09DFA786800F0B2
:10378000A3FA7B6800221A77BB6803F01003002BB2
:1037900020D0FB6803F01003002B1BD07B681B6854
:1037A0006FF010021A617B6808221A777B681B6829
:1037B000DB6903F44073002B03D07868FDF764FDE8
:1037C00005E0786800F077FA786800F07DFA7B68A9
:1037D00000221A77BB6803F00103002B0CD0FB68B2
:1037E00003F00103002B07D07B681B686FF0010218
:1037F0001A617868FDF732FDBB6803F08003002B87
:103800000CD0FB6803F08003002B07D07B681B689B
:103810006FF080021A61786800F0DEFEBB6803F08A
:103820004003002B0CD0FB6803F04003002B07D0B3
:103830007B681B686FF040021A61786800F04DFAEF
:10384000BB6803F02003002B0CD0FB6803F02003BF
:10385000002B07D07B681B686FF020021A61786824
:1038600000F0B1FE00BF1037BD4680BD80B586B008
:1038700000AFF860B9607A600023FB75FB6893F8CD
:103880003C30012B01D1022388E0FB68012283F840
:103890003C207B68002B1BD1FB681868BB6819684B
:1038A000BB685A68BB68DB6800F016FCFB681B68E5
:1038B0009A69FB681B6822F00C029A61FB681B681E
:1038C0009969BB689A68FB681B680A439A6160E063
:1038D0007B68042B1CD1FB681868BB681968BB683F
:1038E0005A68BB68DB6800F07FFCFB681B689A695C
:1038F000FB681B6822F440629A61FB681B68996947
:10390000BB689B681A02FB681B680A439A6140E027
:103910007B68082B1BD1FB681868BB681968BB68FB
:103920005A68BB68DB6800F0CAFCFB681B68DA6990
:10393000FB681B6822F00C02DA61FB681B68D9691E
:10394000BB689A68FB681B680A43DA6121E07B6800
:103950000C2B1CD1FB681868BB681968BB685A68D7
:10396000BB68DB6800F0E6FCFB681B68DA69FB6893
:103970001B6822F44062DA61FB681B68D969BB6886
:103980009B681A02FB681B680A43DA6101E00123A5
:10399000FB75FB68002283F83C20FB7D1846183736
:1039A000BD4680BD80B586B000AFF860B9607A6072
:1039B0000023FB75FB6893F83C30012B01D10223F7
:1039C000AEE0FB68012283F83C207B680C2B00F200
:1039D0009F8001A252F823F00D3A0008113B000825
:1039E000113B0008113B00084D3A0008113B00084C
:1039F000113B0008113B00088F3A0008113B0008FA
:103A0000113B0008113B0008CF3A0008FB681B6817
:103A1000B968184600F0D8F9FB681B689A69FB681A
:103A20001B6842F008029A61FB681B689A69FB6890
:103A30001B6822F004029A61FB681B689969BB68E5
:103A40001A69FB681B680A439A6164E0FB681B689B
:103A5000B968184600F01EFAFB681B689A69FB6893
:103A60001B6842F400629A61FB681B689A69FB68F4
:103A70001B6822F480629A61FB681B689969BB68C5
:103A80001B691A02FB681B680A439A6143E0FB68E2
:103A90001B68B968184600F067FAFB681B68DA69AA
:103AA000FB681B6842F00802DA61FB681B68DA6990
:103AB000FB681B6822F00402DA61FB681B68D969A5
:103AC000BB681A69FB681B680A43DA6123E0FB687C
:103AD0001B68B968184600F0B1FAFB681B68DA6920
:103AE000FB681B6842F40062DA61FB681B68DA69F4
:103AF000FB681B6822F48062DA61FB681B68D96985
:103B0000BB681B691A02FB681B680A43DA6102E0A2
:103B10000123FB7500BFFB68002283F83C20FB7D7E
:103B200018461837BD4680BD80B584B000AF7860B8
:103B300039600023FB737B6893F83C30012B01D183
:103B40000223B4E07B68012283F83C207B680222D8
:103B500083F83D207B681B689B68BB60BB6823F0D3
:103B60007703BB60BB6823F47F43BB607B681B6843
:103B7000BA689A603B681B68B3F5005F3ED0B3F546
:103B8000005F00F28780B3F5805F00F08680B3F5B8
:103B9000805F7FD8702B1AD0702B7BD8602B50D0D1
:103BA000602B77D8502B3CD0502B73D8402B58D05B
:103BB000402B6FD8302B64D0302B6BD8202B60D0AB
:103BC000202B67D8002B5CD0102B5AD062E07B688A
:103BD00018683B6899683B685A683B68DB6800F086
:103BE000FFFB7B681B689B68BB60BB6843F0770387
:103BF000BB607B681B68BA689A604FE07B68186896
:103C00003B6899683B685A683B68DB6800F0E8FBF2
:103C10007B681B689A687B681B6842F480429A60E4
:103C20003CE07B6818683B6859683B68DB681A466B
:103C300000F0ACFA7B681B685021184600F0B6FB18
:103C40002CE07B6818683B6859683B68DB681A465B
:103C500000F006FB7B681B686021184600F0A6FB9D
:103C60001CE07B6818683B6859683B68DB681A464B
:103C700000F08CFA7B681B684021184600F096FB28
:103C80000CE07B681A683B681B681946104600F018
:103C90008DFB03E00123FB7300E000BF7B68012282
:103CA00083F83D207B68002283F83C20FB7B18468C
:103CB0001037BD4680BD80B483B000AF786000BFD0
:103CC0000C37BD4680BC704780B483B000AF7860CD
:103CD00000BF0C37BD4680BC704780B483B000AFD6
:103CE000786000BF0C37BD4680BC704780B485B09B
:103CF00000AF786039607B681B68FB607B682F4A87
:103D000093420BD07B68B3F1804F07D07B682C4A7D
:103D1000934203D07B682B4A934208D1FB6823F07F
:103D20007003FB603B685B68FA681343FB607B6869
:103D3000224A93420BD07B68B3F1804F07D07B6857
:103D40001F4A934203D07B681E4A934208D1FB6806
:103D500023F44073FB603B68DB68FA681343FB6045
:103D6000FB6823F080023B685B691343FB607B6860
:103D7000FA681A603B689A687B68DA623B681A687E
:103D80007B689A627B680D4A934203D13B681A694B
:103D90007B681A637B6801225A617B681B6903F0A8
:103DA0000103002B05D07B681B6923F001027B68AF
:103DB0001A6100BF1437BD4680BC7047002C01401B
:103DC000000400400008004080B487B000AF786075
:103DD00039607B681B6A7B617B681B6A23F0010288
:103DE0007B681A627B685B683B617B689B69FB60F0
:103DF000FB6823F07003FB60FB6823F00303FB60A8
:103E00003B681B68FA681343FB607B6923F002037D
:103E10007B613B689B687A6913437B617B681C4AC2
:103E200093420CD17B6923F008037B613B68DB681C
:103E30007A6913437B617B6923F004037B617B68B0
:103E4000134A934211D13B6923F480733B613B6970
:103E500023F400733B613B685B693A6913433B6140
:103E60003B689B693A6913433B617B683A695A60D6
:103E70007B68FA689A613B685A687B685A637B681A
:103E80007A691A6200BF1C37BD4680BC704700BF0C
:103E9000002C014080B487B000AF786039607B6847
:103EA0001B6A7B617B681B6A23F010027B681A62C5
:103EB0007B685B683B617B689B69FB60FB6823F404
:103EC000E043FB60FB6823F44073FB603B681B68C6
:103ED0001B02FA681343FB607B6923F020037B61BC
:103EE0003B689B681B017A6913437B617B681D4AB1
:103EF00093420DD17B6923F080037B613B68DB68D3
:103F00001B017A6913437B617B6923F040037B616A
:103F10007B68144A934213D13B6923F480633B616D
:103F20003B6923F400633B613B685B699B003A6932
:103F300013433B613B689B699B003A6913433B61B8
:103F40007B683A695A607B68FA689A613B685A688C
:103F50007B689A637B687A691A6200BF1C37BD462A
:103F600080BC7047002C014080B487B000AF7860FF
:103F700039607B681B6A7B617B681B6A23F48072F3
:103F80007B681A627B685B683B617B68DB69FB600E
:103F9000FB6823F07003FB60FB6823F00303FB6006
:103FA0003B681B68FA681343FB607B6923F400736A
:103FB0007B613B689B681B027A6913437B617B686A
:103FC0001D4A93420DD17B6923F400637B613B68FA
:103FD000DB681B027A6913437B617B6923F480638E
:103FE0007B617B68144A934213D13B6923F480536D
:103FF0003B613B6923F400533B613B685B691B01F8
:104000003A6913433B613B689B691B013A6913435F
:104010003B617B683A695A607B68FA68DA613B68A1
:104020005A687B68DA637B687A691A6200BF1C375A
:10403000BD4680BC704700BF002C014080B487B0F3
:1040400000AF786039607B681B6A3B617B681B6AE4
:1040500023F480527B681A627B685B687B617B68B3
:10406000DB69FB60FB6823F4E043FB60FB6823F43F
:104070004073FB603B681B681B02FA681343FB60DC
:104080003B6923F400533B613B689B681B033A691F
:1040900013433B617B680F4A934209D17B6923F448
:1040A00080437B613B685B699B017A6913437B6159
:1040B0007B687A695A607B68FA68DA613B685A689B
:1040C0007B681A647B683A691A6200BF1C37BD4678
:1040D00080BC7047002C014080B487B000AFF8600E
:1040E000B9607A603B60FB681B6A3B61FB681B6AD6
:1040F00023F00102FB681A62FB689B697B61FB6825
:104100001F4A93420BD0FB68B3F1804F07D0FB6886
:104110001C4A934203D0FB681B4A934201D10123FE
:1041200000E00023002B08D07B6923F003037B61B0
:104130007A697B6813437B6103E07B6943F0010389
:104140007B617B6923F0F0037B613B681B01DBB281
:104150007A6913437B613B6923F00A033B61BB68C7
:1041600003F00A033A6913433B61FB687A699A6179
:10417000FB683A691A6200BF1C37BD4680BC7047B5
:10418000002C0140000400400008004080B487B0CB
:1041900000AFF860B9607A60FB681B6A7B61FB68FE
:1041A0001B6A23F00102FB681A62FB689B693B6192
:1041B0003B6923F0F0033B617B681B013A691343C1
:1041C0003B617B6923F00A037B617A69BB68134317
:1041D0007B61FB683A699A61FB687A691A6200BF81
:1041E0001C37BD4680BC704780B487B000AFF86014
:1041F000B9607A603B60FB681B6A7B61FB681B6A85
:1042000023F01002FB681A62FB689B693B613B6903
:1042100023F440733B617B681B023A6913433B61A3
:104220003B6923F470433B613B681B039BB23A69D3
:1042300013433B617B6923F0A0037B61BB681B01D7
:1042400003F0A0037A6913437B61FB683A699A61C2
:10425000FB687A691A6200BF1C37BD4680BC704794
:1042600080B487B000AFF860B9607A60FB681B6A01
:104270007B61FB681B6A23F01002FB681A62FB6813
:104280009B693B613B6923F470433B617B681B0383
:104290003A6913433B617B6923F0A0037B61BB68F0
:1042A0001B017A6913437B61FB683A699A61FB6879
:1042B0007A691A6200BF1C37BD4680BC704780B463
:1042C00087B000AFF860B9607A603B60FB681B6A3A
:1042D0007B61FB681B6A23F48072FB681A62FB68CF
:1042E000DB693B613B6923F003033B613A697B680F
:1042F00013433B613B6923F0F0033B613B681B01C7
:10430000DBB23A6913433B617B6923F400737B6141
:10431000BB681B0203F400737A6913437B61FB687B
:104320003A69DA61FB687A691A6200BF1C37BD46D8
:1043300080BC704780B487B000AFF860B9607A6025
:104340003B60FB681B6A7B61FB681B6A23F480523D
:10435000FB681A62FB68DB693B613B6923F44073CD
:104360003B617B681B023A6913433B613B6923F461
:1043700070433B613B681B039BB23A6913433B614B
:104380007B6923F400537B61BB681B0303F4005378
:104390007A6913437B61FB683A69DA61FB687A6981
:1043A0001A6200BF1C37BD4680BC704780B485B020
:1043B00000AF786039607B689B68FB60FB6823F026
:1043C0007003FB603A68FB68134343F00703FB602C
:1043D0007B68FA689A6000BF1437BD4680BC70479E
:1043E00080B487B000AFF860B9607A603B60FB686A
:1043F0009B687B617B6923F47F437B613B681A0286
:104400007B681A43BB6813437A6913437B61FB687B
:104410007A699A6000BF1C37BD4680BC704780B483
:1044200087B000AFF860B9607A60BB6803F01F0323
:10443000012202FA03F37B61FB681A6A7B69DB43A2
:104440001A40FB681A62FB681A6ABB6803F01F0314
:10445000796801FA03F31A43FB681A6200BF1C373C
:10446000BD4680BC7047000080B485B000AF786066
:1044700039607B6893F83C30012B01D1022346E080
:104480007B68012283F83C207B68022283F83D2070
:104490007B681B685B68FB607B681B689B68BB6014
:1044A000FB6823F07003FB603B681B68FA681343EA
:1044B000FB607B681B68FA685A607B681B68164A59
:1044C00093420ED07B681B68B3F1804F09D07B68A4
:1044D0001B68124A934204D07B681B68104A9342BF
:1044E0000CD1BB6823F08003BB603B685B68BA6893
:1044F0001343BB607B681B68BA689A607B680122C3
:1045000083F83D207B68002283F83C200023184676
:104510001437BD4680BC7047002C014000040040A9
:104520000008004080B485B000AF78603960002397
:10453000FB607B6893F83C30012B01D102233DE006
:104540007B68012283F83C20FB6823F0FF023B6874
:10455000DB681343FB60FB6823F440723B689B6895
:104560001343FB60FB6823F480623B685B68134382
:10457000FB60FB6823F400623B681B681343FB602D
:10458000FB6823F480523B681B691343FB60FB68A4
:1045900023F400523B685B691343FB60FB6823F420
:1045A00080423B68DB691343FB607B681B68FA68E9
:1045B0005A647B68002283F83C2000231846143795
:1045C000BD4680BC704780B483B000AF786000BF48
:1045D0000C37BD4680BC704780B483B000AF7860B4
:1045E00000BF0C37BD4680BC7047002B2DE9F0475B
:1045F0001D46BBBF03F100431D4600232D2388B099
:104600001446B8BF1446129A109E1370149BDDF81E
:104610004CA023F02008B8F1460F05D0B8F1450FA3
:1046200000D10136022300E0032307AA049206AA60
:10463000CDE902A2CDE9003622462B4601F084F8EE
:10464000B8F1470F074619D1119BDB070ED500EBD8
:1046500006090022002320462946FCF7A5F908B1E7
:10466000CDF81C903022079B4B451ED33846079B44
:10467000159ADB1B136008B0BDE8F087B8F1460F50
:1046800000EB0609E5D10378302B0AD10022002384
:1046900020462946FCF788F918B9C6F10106CAF880
:1046A0000060DAF800309944D3E7591C07911A707A
:1046B000D9E7F7B50029B6BF2D232B234942092995
:1046C0000270437029DD0DF107031D460A27B1FB77
:1046D000F7F61A4607FB1614303402F8014C0C4664
:1046E000632C314603F1FF33F1DC3031941E03F8C3
:1046F000011C2346411CAB420AD30DF109039B1A4E
:10470000AC4288BF002302330344181A03B0F0BD43
:1047100013F8016B01F8016FEDE73023303183703E
:10472000C170031DF1E700002DE9F04F91B00C4678
:10473000DDF8688016461F46054600F0F1FE036866
:1047400018460893FBF704FD00230E93D8F80030B9
:104750000990073323F0070303F1080294F818A027
:10476000D4F800B0C8F80020D3E9008929F000434C
:104770000B93CDF828804FF0FF32DDE90A01C4E940
:1047800012899C4BFCF742F970BBDDE90A014FF03E
:10479000FF32984BFCF71CF930BB00220023404647
:1047A0004946FCF70BF910B12D2384F84330924AA7
:1047B000924BBAF1470F94BF9046984603234FF0AF
:1047C000000923612BF00403236033462146284669
:1047D00000970FAA00F0D4F9013040F090804FF01C
:1047E000FF3011B0BDE8F08F42464B464046494687
:1047F000FCF70CF948B14B46002BB8BF2D23804A7B
:10480000B8BF84F843307F4BD3E763680AF0DF0119
:104810005A1C3FD10623636000224BF4806323605F
:1048200006920EAACDE904A20DAA03920DF133025D
:10483000CDE9013263684246009328464B460A910F
:10484000FFF7D3FE0A99804647290D9928D1C81C45
:1048500002DB6368994240DDAAF1020A5FFA8AFA34
:104860005246013904F150000D91FFF722FF0E9AD4
:1048700081461318012A236102DC2268D20701D580
:10488000013323619DF83330002B9ED02D2384F813
:1048900043309AE74729BFD1002BBDD10123BAE7A6
:1048A000BAF1650FDCD9BAF1660F18D10029636837
:1048B0000BDD216113B92268D00702D501330B4407
:1048C00023614FF00009A165DCE713B92268D20724
:1048D00001D50233F4E70123F2E74FF0670A0E9B9C
:1048E000994205DB23682161D807EAD54B1CE7E72D
:1048F0000029CCBF0122C1F102021344E0E7236882
:104900005A0507D42369424631462846B847013044
:104910002BD164E7BAF1650F40F2DC80D4E91201D3
:1049200000220023FCF740F8002833D00123314651
:104930002846354AB84701303FF451AFDDE90D381C
:10494000434502DB2368D8070FD5DDE9082331464C
:104950002846B84701303FF442AF4FF0000908F154
:10496000FF3804F11A0AC84509DC23689B0700F1E7
:104970000281E0680F9B9842B8BF184631E70123D7
:10498000524631462846B84701303FF428AF09F176
:104990000109E8E70D9B002B38DC0123314628464E
:1049A000194AB84701303FF41AAFDDE90D3959EA29
:1049B000030302D12368D907D7D5DDE9082331469F
:1049C0002846B84701303FF40AAF4FF0000A04F11F
:1049D0001A0B0D9B5B42534501DC4B4693E70123C9
:1049E0005A4631462846B84701303FF4F8AE0AF13E
:1049F000010AEEE7FFFFEF7FE28C0008E68C00087B
:104A0000EA8C0008EE8C0008F28C0008A36DDDF83B
:104A100038A05345A8BF5346002B994636DC4FF0CB
:104A2000000B29EAE97904F11A02A36D0A93A3EBBA
:104A300009035B4531DC0D9B9A453ADC2368DA07B4
:104A400037D40D9BAAEB03090A9BAAEB03039945F4
:104A5000A8BF9946B9F1000F33DC4FF0000829EAEE
:104A6000E97904F11A0B0D9BAAEB0303A3EB0903ED
:104A700043457FF77AAF01235A4631462846B84767
:104A800001303FF4ACAE08F10108ECE74246314694
:104A90002846B8470130C2D1A1E601233146284655
:104AA0000A92B84701303FF49AAE0A9A0BF1010B13
:104AB000BBE73146DDE908232846B8470130C0D1BD
:104AC0008DE60A9A4B46314628464244B8470130A3
:104AD000C3D184E6DDF838A0BAF1010F01DCDB07B1
:104AE00036D50123424631462846B84701303FF4C7
:104AF00076AEDDE9082331462846B84701303FF459
:104B00006EAED4E91201002200230AF1FF3AFBF74E
:104B10004BFFC0B9534608F1010231462846B84759
:104B200001300CD15BE601235A4631462846B8478E
:104B300001303FF454AE08F10108D045F3DB4B4699
:104B400004F15002E0E64FF0000804F11A0BF4E71C
:104B500001234246E1E701234A4631462846B84749
:104B600001303FF43CAE08F10108E3680F995B1A8D
:104B70004345F0DCFDE64FF0000804F11909F4E7C5
:104B80002DE9F047164698468A680B690746934216
:104B9000B8BF1346336091F843200C46DDF82090EF
:104BA0000AB1013333602368990642BF3368023388
:104BB0003360256815F0060506D104F1190AE3688B
:104BC00032689B1AAB422BDC94F843302268003BDE
:104BD00018BF0123920630D44146384604F14302FF
:104BE000C847013023D02368226903F00603042B51
:104BF00014BF002533684FF0000608BFE56804F1D4
:104C00001A0408BFED1A54F8123C08BF25EAE575EE
:104C10009342C4BF9B1AED18B5421AD1002008E098
:104C20000123524641463846C847013003D14FF070
:104C3000FF30BDE8F0870135C1E73020E11881F889
:104C400043005A1C94F845102244023382F8431062
:104C5000C2E70123224641463846C8470130E6D024
:104C60000136D9E72DE9FF470F7E9146782F804620
:104C70000C469A460C9E01F1430207D8622F0AD8CF
:104C8000002F00F0D380582F00F0BA8004F14206C4
:104C900084F842703AE0A7F16303152BF6D801A11E
:104CA00051F823F0FD4C0008114D00088D4C000810
:104CB0008D4C00088D4C00088D4C0008114D0008EB
:104CC0008D4C00088D4C00088D4C00088D4C000860
:104CD000134E00083B4D0008CD4D00088D4C0008D8
:104CE0008D4C0008354E00088D4C00083B4D0008E7
:104CF0008D4C00088D4C0008D54D000833681A1DF6
:104D00001B68326004F1420684F8423001239EE0C1
:104D100033682068191D3160060601D51D6803E05F
:104D20004506FBD5B3F90050002D03DA2D236D4263
:104D300084F843300A23594811E021683368080693
:104D400053F8045B02D4490648BFADB26F2F3360FD
:104D500014BF0A2308235148002184F843106668D1
:104D6000002EA8BF2168A660A4BF21F00401216025
:104D70000DB9002E4BD01646B5FBF3F103FB1157CE
:104D8000C75D06F8017D2F46BB420D46F4D9082BBE
:104D90000BD12368DF0708D5236961689942DEBF1C
:104DA000302306F8013C06F1FF36921B22614B4688
:104DB00021464046CDF800A003AAFFF7E1FE0130EE
:104DC0004AD14FF0FF3004B0BDE8F087236843F0CC
:104DD000200323607827324884F8457023683168BF
:104DE0001F0651F8045B02D45F0648BFADB23160C4
:104DF000D90744BF43F0200323601DB11023ABE764
:104E00002648E9E7236823F020032360F6E71646E7
:104E1000BDE733682568181D616930602E061B6880
:104E200001D5196002E06806FBD5198000231646FB
:104E30002361BCE7336800211A1D32601E68626876
:104E4000304600F0E4FB08B1801B606063682361BA
:104E5000002384F84330AAE7324649464046236996
:104E6000D0470130ADD023689B0713D4E068039B83
:104E70009842B8BF1846A6E7012332464946404645
:104E8000D04701309DD00135E36803995B1AAB42EE
:104E9000F2DCEBE7002504F11906F5E7F48C0008D5
:104EA000058D00082DE9F04F87B003938B681746F6
:104EB0005A1EB2F5AE7F82BF6FF4AE7503EB050BE1
:104EC00040F25D130A464FF0000588BF8B600B6807
:104ED000804643F4F06342F81C3B0C4698BF4FF009
:104EE000000B1646AA46A946CDE904550192029543
:104EF000A26852B13B681B784E2B65D8402B3DD839
:104F0000A3F12B01C8B20E283BD9B9F1000F03D091
:104F1000236823F4807323600AF1FF3ABAF1010F8A
:104F200000F21881019B9E4200F20981012007B026
:104F3000BDE8F08FA3F161020D2AE6D801A151F876
:104F400022F000BF8B5000080B4F00080B4F0008E9
:104F50000B4F0008EB500008C35000080B4F00082F
:104F60000B4F0008995000080B4F00080B4F00082A
:104F70000B4F00080B4F000851500008A3F14102ED
:104F8000DAE70E29C1D801A050F821F041500008FD
:104F90000B4F000841500008D75000080B4F000885
:104FA000E94F000827500008275000082750000844
:104FB00027500008275000082750000827500008F5
:104FC00027500008275000086E2B09D8602BB1D855
:104FD000542B7BD0592B98D1072D96D108252CE046
:104FE000742B73D0792BF6E72168C8051BD521F007
:104FF0008001216009F10109BBF1000F03D00132EA
:105000000BF1FF3BA260A368013BA360236901335E
:1050100023617B68013B002B7B6040F387803B680A
:1050200001333B6064E71AEB05017FF46EAF0D4678
:105030008A46226822F4C072226006F8013BE2E749
:10504000226810067FF561AF22F080022260F4E74B
:10505000BAF1000F0ED1B9F1000F0ED1226802F49F
:10506000E061B1F5E06F08D122F4F0624FF0010A7F
:105070002260E2E7BAF1020F55D0012D02D0042DD3
:105080007FF443AF0135EDB2D7E7BAF1010F7FF4FA
:105090003CAF4FF0020AD0E77DB9B9F1000F7FF4C1
:1050A00037AF226802F4E061B1F5E06F40F00381B0
:1050B00022F4F06201252260BFE7032DE2D0052D26
:1050C000DEE7022D7FF421AF0325B6E7062D7FF43E
:1050D0001CAF0725B1E7226891057FF516AF22F4D2
:1050E00020722260CDF80890A7E7226802F4A06140
:1050F000B1F5806F06D050057FF507AFB9F1000F0D
:1051000000F0D980910558BF029922F4F06258BF8F
:10511000A9EB010142F4C0724FF0000958BFCDE97C
:105120000416226089E74FF0030A86E739464046B5
:10513000D4F88031984700283FF4DAAEE5E6D4F899
:105140007C313A46404616F8011D98472369013BD9
:105150002361E7E66B1E062B24D8022D36D8019B6F
:105160009E427FF6E3AED4F87C313A46404616F8CC
:10517000011D98472369013B2361F0E7D4F87C3196
:105180003A4640461BF8011D98472369013B2361BD
:105190000AF1FF3A5FFA8AFABAF1020FEED1033D43
:1051A000EDB2761B2368DA0530D55B0511D5019B7E
:1051B0009E427FF6BBAED4F87C313A46404616F8A4
:1051C000011D98472369013B2361F0E7AA46B346D6
:1051D000DEE716F8011C2369652903F1FF3306F1A8
:1051E000FF3523610CD045290AD0D4F87C313A46EA
:1051F00040469847236916F8021C013BB51E2361FF
:105200003A464046D4F87C3198472E46226812F040
:10521000100201D000208AE63270236803F4C063D4
:10522000B3F5806F1CD1029B4B45A3EB090223D140
:1052300000224046019902F0EFFB039B25681B68A2
:1052400015F0020F06460F4603F104021FD0039922
:105250000A601B68C3E90067E3680133E360D9E7CC
:10526000049B002BE4D005990A234046013102F04B
:1052700053FC049B059EC21A04F26F139E4228BF82
:1052800004F5B77630460D4900F0DEF8D0E76D073B
:10529000DDD4039D2A601D6802460B46FBF7B6FB72
:1052A00020B1074800F0C2F92860D5E730463946FA
:1052B000FBF70AFCF8E74FF000092DE6168D000811
:1052C000AD900008002310B50446C0E90033C0E9E2
:1052D0000433836081814366C28183611946082259
:1052E0005C3000F014F90D4B246263620C4BA36236
:1052F0000C4BE3620C4B23630C4B9C4206D003F136
:105300006802944202D0D0339C4205D104F1580087
:10531000BDE8104000F078B910BD00BF8954000806
:10532000AB540008E3540008075500082003002090
:10533000024A0349034800F069B800BF1C0000207E
:10534000CD7E00082C00002041680C4B10B599421E
:10535000044601D002F0BAFDA168094B994202D07F
:10536000204602F0B3FDE168064B994204D0204686
:10537000BDE8104002F0AABD10BD00BF2003002010
:1053800088030020F003002010B50B4B0B4C0C4A97
:1053900020461A6004210022FFF794FF04F1680000
:1053A00001220921FFF78EFF04F1D0000222BDE89F
:1053B00010401221FFF786BF580400202003002070
:1053C00031530008014800F020B900BF61040020FB
:1053D000014800F01BB900BF6104002010B504466D
:1053E000FFF7F0FF236A1BB1BDE81040FFF7F0BFE5
:1053F000044B2362044B1B68002BF5D1FFF7C4FF5D
:10540000F2E700BF49530008580400202DE9F84393
:105410000746884614460026D4E90195B9F10109EA
:1054200005D52468002CF7D13046BDE8F883AB8958
:10543000012B07D9B5F90E30013303D02946384680
:10544000C04706436835E9E70EB46FF0004100B588
:105450009CB01DAB02900690079104910848094941
:1054600053F8042B0591006802A9019302F0B2FBE6
:105470000022029B1A701CB05DF804EB03B0704769
:10548000280000200802FFFF10B50C46B1F90E10ED
:1054900000F06CF80028ABBF636DA3891B1823F4E0
:1054A0008053ACBF6365A38110BD2DE9F0411F4659
:1054B0008B890546DB050C46164605D502230022DE
:1054C000B1F90E1000F040F8A389324623F480535E
:1054D000A38128463B46B4F90E10BDE8F04100F028
:1054E00057B810B50C46B1F90E1000F02DF8431C5A
:1054F000A38915BF606523F4805343F48053A381CF
:1055000018BFA38110BDB1F90E1000F00DB803460D
:105510000244934200D1704703F8011BF9E70000F1
:10552000004870476801002038B50023054D044647
:1055300008462B60FCF7FDFB431C02D12B6803B12E
:10554000236038BD5C04002038B504460846114687
:105550000022054D2A601A46FCF70FFC431C02D1BD
:105560002B6803B1236038BD5C04002038B50446C5
:10557000084611460022054D2A601A46FCF7A0FB9A
:10558000431C02D12B6803B1236038BD5C040020AA
:1055900038B50446084611460022054D2A601A46D1
:1055A000FCF7ABFB431C02D12B6803B1236038BD71
:1055B0005C040020014B1868704700BF28000020E1
:1055C00070B500260C4D0D4C641BA410A64209D1E9
:1055D00003F068FB00260A4D0A4C641BA410A64287
:1055E00005D170BD55F8043B98470136EEE755F8F4
:1055F000043B98470136F2E718910008189100081B
:10560000189100081C9100087047704770470346C6
:1056100010B5C9B202449342184601D1002003E0FC
:10562000047801338C42F6D110BD00000048704769
:105630000000C07F2DE9F74F03690C690746A342BC
:105640007EDB013CA30000F1140501F11408009376
:1056500005EB8403019358F8243055F824200133D6
:105660009A42B2FBF3F608EB84092ED34FF0000AFE
:10567000C446AE46D3465CF8043B98B206FB00A095
:105680001B0C020C06FB0323DEF8002080B292B252
:10569000121A5A44DEF800004FEA134A9BB2C3EBD9
:1056A000224303EB104392B242EA0342E1454FEA40
:1056B000234B4EF8042BDED2009BEB582BB9019BF9
:1056C000043B9D421A462FD33C61384601F0C4F991
:1056D000002825DB2946002058F8042BD1F800C00B
:1056E0001FFA82FE1FFA8CF3A3EB0E030344120C85
:1056F000C2EB234202EB1C429BB243EA0243C14588
:105700004FEA224041F8043BE6D255F8242005EB4D
:10571000840322B9043B9D421A460BD33C610136F7
:10572000304603B0BDE8F08F1268043B002ACBD1AD
:10573000013CC6E71268043B002AEFD1013CEAE7CE
:105740000020EEE7000000002DE9F04F14461D4652
:10575000C76997B08346CDE90245239E7FB91020E3
:1057600000F002FE0246CBF81C0020B9EF21A84B46
:10577000A84802F023FCC0E901770760C760DBF8A6
:105780001C30196859B15A68012393404A608B60F4
:10579000584600F0DFFE0022DBF81C301A602B1E9A
:1057A000AFBF0023012223F000430393A8BF33605F
:1057B000DDF80C80984BB8BF326033EA080312D191
:1057C00042F20F73229A1360C8F31303234300F0CD
:1057D0005085249BDFF844A2002B00F052850AF18B
:1057E000030300F04CBDDDE90223CDE90C23DDE924
:1057F0000C0100220023FBF7D7F8074658B101231C
:10580000229A1360249B13B1854B249A1360DFF80E
:1058100014A200F036BD14AB019315AB00935846AB
:10582000DDE90C2301F030FAC8F30A568146002E58
:1058300077D0DDE90C010D9BA6F2FF36C3F313030D
:1058400043F07F5343F44013129719460022764BDE
:10585000FAF78AFC68A3D3E90023FAF73DFE68A3B0
:10586000D3E90023FAF782FC044630460D46FAF7E6
:10587000C9FD65A3D3E90023FAF72EFE02460B46C5
:1058800020462946FAF772FC04460D46FBF7D4F889
:1058900000220746002320462946FBF78FF840B137
:1058A0003846FAF7AFFD22462B46FBF77DF800B9E4
:1058B000013F162F53D8DDE90C015C4B03EBC70306
:1058C000D3E90023FBF77AF800284AD00023013FF0
:1058D0000F93149B9B1B5A1E46BFC3F10108002364
:1058E0004FF00008099248BF0993002F3BDB099B4A
:1058F0000E973B44099300230A93209B092B66D8FB
:10590000052BC4BF043B2093209BC8BF0024A3F1F8
:105910000203D8BF0124032B64D8DFE803F02B383F
:105920003656DDE914631E4406F23243202BC1BF14
:10593000C3F1400308FA03F806F2124324FA03F312
:10594000D6BFC3F1200348EA030004FA03F0FAF7D4
:1059500049FD0122A1F1F873013E129275E701237E
:10596000B6E70F90B5E77B420A930023A8EB070840
:105970000E93C2E700230B93219B002B35DC012300
:105980001A46CDE9073321920BE00123F3E7002308
:105990000B93219BFB1808930133012B0793B8BF8E
:1059A000012300210422DBF81C0002F114059D42B2
:1059B0001FD94160584600F08DFD8246002839D13C
:1059C000024640F2AF111A4BD2E60123E0E7012470
:1059D00000230B9420934FF0FF330022CDE90733CF
:1059E0001223D0E701230B93F5E7219BCDE9073381
:1059F000D7E701315200D8E761436F63A787D23FF1
:105A0000B3C8608B288AC63FFB799F501344D33FAD
:105A1000288D00083F8D00080000F07F248D0008CD
:105A2000F38C0008F28C00080000F83F388E000864
:105A3000978D0008DBF81C301860079B0E2B00F2D6
:105A4000A480002C00F0A180002F33DD864B07F0EE
:105A50000F0203EBC203F805D3E90034CDE90434A7
:105A60004FEA271416D5DDE90C01804B0326D3E954
:105A70000823FAF75BFECDE9020104F00F047B4D29
:105A800054B9DDE90423DDE90201FAF74FFECDE95F
:105A9000020128E00226F2E7E10708D5DDE904016A
:105AA000D5E90023FAF718FDCDE9040101366410A9
:105AB0000835E5E700F0D280DDE90C017C426A4B55
:105AC00004F00F0203EBC203D3E90023FAF704FD4D
:105AD00002260023CDE90201644D2411002C40F080
