:020000040800F2
:1000000000500020491E0008E51B0008ED1B0008F9
:10001000F51B0008FD1B0008051C0008000000007F
:100020000000000000000000000000000D1C00089F
:10003000191C000800000000251C0008311C0008E5
:10004000911E0008911E0008911E0008911E0008D4
:100050003D1C0008491C0008911E0008911E000864
:10006000911E0008911E0008911E0008911E0008B4
:10007000911E0008911E0008911E0008911E0008A4
:10008000911E0008911E0008911E0008911E000894
:10009000911E0008911E0008911E0008911E000884
:1000A000551C0008691C00087D1C0008911C0008F4
:1000B000911E0008911E0008A51C0008911E000852
:1000C000911E0008911E0008911E0008911E000854
:1000D000911E0008911E0008911E0008911E000844
:1000E000911E0008911E0008911E000800000000EB
:1000F0000000000000000000000000000000000000
:0C01000000000000000000005FF808F1A3
:1001100010B5054C237833B9044B13B10448AFF341
:1001200000800123237010BDD801002000000000D2
:100130002485000808B5034B1BB103490348AFF3FE
:10014000008008BD00000000DC01002024850008BC
:10015000034613F8012B002AFBD1181A0138704707
:1001600081F0004102E000BF83F0004330B54FEA68
:1001700041044FEA430594EA050F08BF90EA020FD5
:100180001FBF54EA000C55EA020C7FEA645C7FEA68
:10019000655C00F0E2804FEA5454D4EB5555B8BF8B
:1001A0006D420CDD2C4480EA020281EA030382EAFC
:1001B000000083EA010180EA020281EA0303362D8E
:1001C00088BF30BD11F0004F4FEA01314FF4801C61
:1001D0004CEA113102D0404261EB410113F0004F73
:1001E0004FEA03334CEA133302D0524263EB43032A
:1001F00094EA050F00F0A780A4F10104D5F1200EC8
:100200000DDB02FA0EFC22FA05F2801841F1000122
:1002100003FA0EF2801843FA05F359410EE0A5F1F6
:1002200020050EF1200E012A03FA0EFC28BF4CF027
:10023000020C43FA05F3C01851EBE37101F00045DD
:1002400007D54FF0000EDCF1000C7EEB00006EEBEA
:100250000101B1F5801F1BD3B1F5001F0CD3490874
:100260005FEA30004FEA3C0C04F101044FEA4452CB
:1002700012F5800F80F09A80BCF1004F08BF5FEA52
:10028000500C50F1000041EB045141EA050130BD32
:100290005FEA4C0C404141EB0101013C28BFB1F544
:1002A000801FE9D291F0000F04BF01460020B1FA8F
:1002B00081F308BF2033A3F10B03B3F120020CDA62
:1002C0000C3208DD02F1140CC2F10C0201FA0CF040
:1002D00021FA02F10CE002F11402D8BFC2F1200CA5
:1002E00001FA02F120FA0CFCDCBF41EA0C0190405B
:1002F000E41AA2BF01EB0451294330BD6FEA0404A4
:100300001F3C1CDA0C340EDC04F11404C4F120028E
:1003100020FA04F001FA02F340EA030021FA04F3A0
:1003200045EA030130BDC4F10C04C4F1200220FAF7
:1003300002F001FA04F340EA0300294630BD21FA35
:1003400004F0294630BD94F0000F83F4801306BFFB
:1003500081F480110134013D4EE77FEA645C18BFEF
:100360007FEA655C29D094EA050F08BF90EA020F86
:1003700005D054EA000C04BF1946104630BD91EA7E
:10038000030F1EBF0021002030BD5FEA545C05D181
:100390004000494128BF41F0004130BD14F58004C0
:1003A0003CBF01F5801130BD01F0004545F0FE4134
:1003B00041F470014FF0000030BD7FEA645C1ABF69
:1003C000194610467FEA655C1CBF0B46024650EAA0
:1003D000013406BF52EA033591EA030F41F40021CC
:1003E00030BD00BF90F0000F04BF0021704730B552
:1003F0004FF4806404F132044FF000054FF0000127
:1004000050E700BF90F0000F04BF0021704730B5E7
:100410004FF4806404F1320410F0004548BF4042BC
:100420004FF000013EE700BF42004FEAE2014FEA11
:1004300031014FEA02701FBF12F07F4393F07F4FEC
:1004400081F06051704732F07F4208BF704793F0EF
:100450007F4F04BF41F40021704730B54FF4607402
:1004600001F0004521F000411CE700BF50EA010205
:1004700008BF704730B54FF000050AE050EA0102AE
:1004800008BF704730B511F0004502D5404261EB1E
:1004900041014FF4806404F132045FEA915C3FF45F
:1004A000D8AE4FF003025FEADC0C18BF03325FEAFC
:1004B000DC0C18BF033202EBDC02C2F1200300FAAD
:1004C00003FC20FA02F001FA03FE40EA0E0021FAD2
:1004D00002F11444BDE600BF70B54FF0FF0C4CF4C0
:1004E000E06C1CEA11541DBF1CEA135594EA0C0F72
:1004F00095EA0C0F00F0DEF82C4481EA030621EAAD
:100500004C5123EA4C5350EA013518BF52EA0335E7
:1005100041F4801143F4801338D0A0FB02CE4FF099
:100520000005E1FB02E506F00042E0FB03E54FF0C9
:100530000006E1FB03569CF0000F18BF4EF0010EC1
:10054000A4F1FF04B6F5007F64F5407404D25FEABD
:100550004E0E6D4146EB060642EAC62141EA555170
:100560004FEAC52040EA5E504FEACE2EB4F1FD0CB2
:1005700088BFBCF5E06F1ED8BEF1004F08BF5FEA30
:10058000500E50F1000041EB045170BD06F00046E2
:1005900046EA010140EA020081EA0301B4EB5C048F
:1005A000C2BFD4EB0C0541EA045170BD41F4801187
:1005B0004FF0000E013C00F3AB8014F1360FDEBFAC
:1005C000002001F0004170BDC4F10004203C35DA88
:1005D0000C341BDC04F11404C4F1200500FA05F30B
:1005E00020FA04F001FA05F240EA020001F00042AC
:1005F00021F0004110EBD37021FA04F642EB060122
:100600005EEA430E08BF20EAD37070BDC4F10C044B
:10061000C4F1200500FA04F320FA05F001FA04F20F
:1006200040EA020001F0004110EBD37041F10001FB
:100630005EEA430E08BF20EAD37070BDC4F1200506
:1006400000FA05F24EEA020E20FA04F301FA05F26E
:1006500043EA020321FA04F001F0004121FA04F216
:1006600020EA020000EBD3705EEA430E08BF20EAE6
:10067000D37070BD94F0000F0FD101F00046400020
:1006800041EB010111F4801F08BF013CF7D041EAA2
:10069000060195F0000F18BF704703F000465200A6
:1006A00043EB030313F4801F08BF013DF7D043EA77
:1006B0000603704794EA0C0F0CEA135518BF95EA2D
:1006C0000C0F0CD050EA410618BF52EA4306D1D1B4
:1006D00081EA030101F000414FF0000070BD50EAD3
:1006E000410606BF1046194652EA430619D094EA5D
:1006F0000C0F02D150EA013613D195EA0C0F05D147
:1007000052EA03361CBF104619460AD181EA03019A
:1007100001F0004141F0FE4141F470014FF0000052
:1007200070BD41F0FE4141F4780170BD70B54FF0ED
:10073000FF0C4CF4E06C1CEA11541DBF1CEA13556D
:1007400094EA0C0F95EA0C0F00F0A7F8A4EB05044F
:1007500081EA030E52EA03354FEA013100F0888046
:100760004FEA03334FF0805545EA131343EA12630F
:100770004FEA022245EA111545EA10654FEA0026C4
:100780000EF000419D4208BF964244F1FD0404F57D
:10079000407402D25B084FEA3202B61A65EB0305D9
:1007A0005B084FEA32024FF480104FF4002CB6EB96
:1007B000020E75EB030E22BFB61A754640EA0C0016
:1007C0005B084FEA3202B6EB020E75EB030E22BF56
:1007D000B61A754640EA5C005B084FEA3202B6EB97
:1007E000020E75EB030E22BFB61A754640EA9C0056
:1007F0005B084FEA3202B6EB020E75EB030E22BF26
:10080000B61A754640EADC0055EA060E18D04FEAE3
:10081000051545EA16754FEA06164FEAC30343EA83
:1008200052734FEAC2025FEA1C1CC0D111F4801F50
:100830000BD141EA00014FF000004FF0004CB6E749
:1008400011F4801F04BF01430020B4F1FD0C88BFE8
:10085000BCF5E06F3FF6AFAEB5EB030C04BFB6EBF3
:10086000020C5FEA500C50F1000041EB045170BDE6
:100870000EF0004E4EEA113114EB5C04C2BFD4EB13
:100880000C0541EA045170BD41F480114FF0000E97
:10089000013C90E645EA060E8DE60CEA135594EA13
:1008A0000C0F08BF95EA0C0F3FF43BAF94EA0C0F16
:1008B0000AD150EA01347FF434AF95EA0C0F7FF48B
:1008C00025AF104619462CE795EA0C0F06D152EADF
:1008D00003353FF4FDAE1046194622E750EA4106C3
:1008E00018BF52EA43067FF4C5AE50EA41047FF4D4
:1008F0000DAF52EA43057FF4EBAE12E74FF0FF3C39
:1009000006E000BF4FF0010C02E000BF4FF0010C09
:100910004DF804CD4FEA410C7FEA6C5C4FEA430C82
:1009200018BF7FEA6C5C1BD001B050EA410C0CBFD1
:1009300052EA430C91EA030F02BF90EA020F002033
:10094000704710F1000F91EA030F58BF994208BF9A
:1009500090422CBFD8176FEAE37040F00100704757
:100960004FEA410C7FEA6C5C02D150EA013C07D1AE
:100970004FEA430C7FEA6C5CD6D152EA033CD3D0F9
:100980005DF8040B704700BF8446104662468C46F3
:100990001946634600E000BF01B5FFF7B7FF002826
:1009A00048BF10F1000F01BD4DF808EDFFF7F4FF4F
:1009B0000CBF012000205DF808FB00BF4DF808EDDA
:1009C000FFF7EAFF34BF012000205DF808FB00BFFD
:1009D0004DF808EDFFF7E0FF94BF012000205DF81F
:1009E00008FB00BF4DF808EDFFF7CEFF94BF0120D4
:1009F00000205DF808FB00BF4DF808EDFFF7C4FFCD
:100A000034BF012000205DF808FB00BF4FEA410C15
:100A10007FEA6C5C02D150EA013C0AD14FEA430CF8
:100A20007FEA6C5C02D152EA033C02D14FF0000035
:100A300070474FF0010070474FEA410212F5001273
:100A400015D211D56FF47873B3EB625212D94FEA15
:100A5000C12343F0004343EA505311F0004F23FAFF
:100A600002F018BF404270474FF00000704750EA54
:100A7000013005D111F0004008BF6FF00040704711
:100A80004FF00000704700BF4A0011D212F500126B
:100A900011D20DD56FF47873B3EB62520ED44FEAD6
:100AA000C12343F0004343EA505323FA02F0704756
:100AB0004FF00000704750EA013002D14FF0FF3094
:100AC00070474FF0000070474FEA4102B2F1E04337
:100AD00024BFB3F5001CDCF1FE5C0DD901F0004C25
:100AE0004FEAC0024CEA5070B2F1004F40EB830075
:100AF00008BF20F00100704711F0804F21D113F1A1
:100B00003872BCBF01F00040704741F480114FEAD9
:100B10005252C2F11802C2F1200C10FA0CF320FA62
:100B200002F018BF40F001004FEAC1234FEAD3237F
:100B300003FA0CFC40EA0C0023FA02F34FEA4303E9
:100B4000CCE77FEA625307D150EA01331EBF4FF072
:100B5000FE4040F44000704701F0004040F0FE408D
:100B600040F40000704700BF80F0004002E000BF8A
:100B700081F0004142001FBF5FEA410392EA030F88
:100B80007FEA226C7FEA236C6AD04FEA1262D2EBD2
:100B90001363C1BFD218414048404140B8BF5B42D7
:100BA000192B88BF704710F0004F40F4000020F070
:100BB0007F4018BF404211F0004F41F4000121F086
:100BC0007F4118BF494292EA030F3FD0A2F10102D0
:100BD00041FA03FC10EB0C00C3F1200301FA03F10E
:100BE00000F0004302D5494260EB4000B0F5000F31
:100BF00013D3B0F1807F06D340084FEA310102F1F0
:100C00000102FE2A51D2B1F1004F40EBC25008BFA1
:100C100020F0010040EA03007047490040EB00006B
:100C2000013A28BFB0F5000FEDD2B0FA80FCACF16C
:100C3000080CB2EB0C0200FA0CF0AABF00EBC25099
:100C400052421843BCBFD0401843704792F0000F87
:100C500081F4000106BF80F400000132013BB5E7DA
:100C60004FEA41037FEA226C18BF7FEA236C21D050
:100C700092EA030F04D092F0000F08BF08467047B5
:100C800090EA010F1CBF0020704712F07F4F04D183
:100C9000400028BF40F00040704712F100723CBF96
:100CA00000F50000704700F0004343F0FE4040F4C0
:100CB000000070477FEA226216BF08467FEA23637E
:100CC0000146420206BF5FEA412390EA010F40F469
:100CD000800070474FF0000304E000BF10F00043B5
:100CE00048BF40425FEA000C08BF704743F096439C
:100CF00001464FF000001CE050EA010208BF7047B7
:100D00004FF000030AE000BF50EA010208BF70473D
:100D100011F0004302D5404261EB41015FEA010C52
:100D200002BF84460146002043F0B64308BFA3F14A
:100D30008053A3F50003BCFA8CF2083AA3EBC2532C
:100D400010DB01FA02FC634400FA02FCC2F120024B
:100D5000BCF1004F20FA02F243EB020008BF20F082
:100D60000100704702F1200201FA02FCC2F12002E8
:100D700050EA4C0021FA02F243EB020008BF20EADD
:100D8000DC7070474FF0FF0C1CEAD0521EBF1CEA0B
:100D9000D15392EA0C0F93EA0C0F6FD01A4480EAF9
:100DA000010C400218BF5FEA41211ED04FF00063E2
:100DB00043EA501043EA5111A0FB01310CF000400E
:100DC000B1F5000F3EBF490041EAD3715B0040EA34
:100DD000010062F17F02FD2A1DD8B3F1004F40EB04
:100DE000C25008BF20F00100704790F0000F0CF0D7
:100DF000004C08BF49024CEA502040EA51207F3A9B
:100E0000C2BFD2F1FF0340EAC250704740F4000075
:100E10004FF00003013A5DDC12F1190FDCBF00F066
:100E200000407047C2F10002410021FA02F1C2F114
:100E3000200200FA02FC5FEA310040F1000053EAB0
:100E40004C0308BF20EADC70704792F0000F00F0FE
:100E5000004C02BF400010F4000F013AF9D040EA04
:100E60000C0093F0000F01F0004C02BF490011F498
:100E7000000F013BF9D041EA0C018FE70CEAD15396
:100E800092EA0C0F18BF93EA0C0F0AD030F0004C16
:100E900018BF31F0004CD8D180EA010000F00040CA
:100EA000704790F0000F17BF90F0004F084691F088
:100EB000000F91F0004F14D092EA0C0F01D14202C2
:100EC0000FD193EA0C0F03D14B0218BF084608D18B
:100ED00080EA010000F0004040F0FE4040F40000D5
:100EE000704740F0FE4040F4400070474FF0FF0C68
:100EF0001CEAD0521EBF1CEAD15392EA0C0F93EAAF
:100F00000C0F69D0A2EB030280EA010C49024FEA00
:100F1000402037D04FF0805343EA111143EA1013B9
:100F20000CF000408B4238BF5B0042F17D024FF471
:100F3000000C8B4224BF5B1A40EA0C00B3EB510F4C
:100F400024BFA3EB510340EA5C00B3EB910F24BF35
:100F5000A3EB910340EA9C00B3EBD10F24BFA3EBBA
:100F6000D10340EADC001B0118BF5FEA1C1CE0D182
:100F7000FD2A3FF650AF8B4240EBC25008BF20F035
:100F8000010070470CF0004C4CEA50207F32C2BF89
:100F9000D2F1FF0340EAC250704740F400004FF026
:100FA0000003013A37E792F0000F00F0004C02BF57
:100FB000400010F4000F013AF9D040EA0C0093F021
:100FC000000F01F0004C02BF490011F4000F013B7B
:100FD000F9D041EA0C0195E70CEAD15392EA0C0FE3
:100FE00008D142027FF47DAF93EA0C0F7FF470AF1B
:100FF000084676E793EA0C0F04D14B023FF44CAF5E
:1010000008466EE730F0004C18BF31F0004CCAD1F2
:1010100030F000427FF45CAF31F000437FF43CAF2E
:101020005FE700BF4FF0FF3C06E000BF4FF0010C50
:1010300002E000BF4FF0010C4DF804CD4FEA400232
:101040004FEA41037FEA226C18BF7FEA236C11D07C
:1010500001B052EA530C18BF90EA010F58BFB2EB2F
:10106000030088BFC81738BF6FEAE17018BF40F0AF
:10107000010070477FEA226C02D15FEA402C05D163
:101080007FEA236CE4D15FEA412CE1D05DF8040BE8
:10109000704700BF844608466146FFE70FB5FFF77B
:1010A000C9FF002848BF10F1000F0FBD4DF808ED33
:1010B000FFF7F4FF0CBF012000205DF808FB00BF24
:1010C0004DF808EDFFF7EAFF34BF012000205DF87E
:1010D00008FB00BF4DF808EDFFF7E0FF94BF0120CB
:1010E00000205DF808FB00BF4DF808EDFFF7D2FFC8
:1010F00094BF012000205DF808FB00BF4DF808ED0B
:10110000FFF7C8FF34BF012000205DF808FB00BFD7
:101110004FEA4002B2F1FE4F0FD34FF09E03B3EB04
:1011200012620DD94FEA002343F0004310F0004F44
:1011300023FA02F018BF404270474FF0000070479A
:1011400012F1610F01D1420205D110F0004008BF39
:101150006FF0004070474FF00000704738B5002234
:10116000002304460D46FFF729FC28B920462946EE
:10117000BDE8384000F00AB8204605F1004100F013
:1011800005F8404261EB410138BD00BFD0B50022F7
:101190000B4B06460F46FFF79FF9FFF775FC044619
:1011A000FFF720F90022074BFFF796F902460B469E
:1011B00030463946FEF7D8FFFFF766FC2146D0BD22
:1011C0000000F03D0000F04180B483B000AF034662
:1011D000FB80084B1B6800225A6200BF054B1B684E
:1011E0005A6AFB889A42F9D300BF00BF0C37BD464C
:1011F00080BC7047F401002080B582B000AF034688
:101200003960FB713B68DBB21A460221204801F0CD
:10121000D7FAFB79DB08DBB203F00103DBB21A4635
:1012200080211B4801F0CCFAFB799B08DBB203F06C
:101230000103DBB21A464021154801F0C1FAFB79DF
:101240005B08DBB203F00103DBB21A462021104831
:1012500001F0B6FAFB7903F00103DBB21A46102164
:101260000B4801F0ADFA01220821094801F0A8FA63
:101270001420FFF7A9FF00220821054801F0A0FA79
:101280001420FFF7A1FF00BF0837BD4680BD00BF97
:101290000008014080B584B000AF0346FB71FB79C4
:1012A0001B09FB73FB7B00211846FFF7A5FFFB79A9
:1012B00003F00F03FB73FB7B00211846FFF79CFF35
:1012C00000BF1037BD4680BD80B584B000AF034677
:1012D000FB71FB791B09FB73FB7B01211846FFF7B0
:1012E0008BFFFB7903F00F03FB73FB7B0121184697
:1012F000FFF782FF00BF1037BD4680BD80B500AF4D
:101300000120FFF7C7FF022000F026FE00BF80BDCE
:1013100080B582B000AF786039607B68002B03D065
:101320007B68012B05D009E03B6843F080033B60FC
:1013300004E03B6843F0C0033B6000BF3B68DBB2A6
:101340001846FFF7A7FF00BF0837BD4680BD80B530
:1013500000AF322000F000FE3020FFF79BFF052099
:1013600000F0FAFD3020FFF795FF012000F0F4FDBA
:101370003020FFF78FFF0A2000F0EEFD2020FFF75E
:1013800089FF0A2000F0E8FD2820FFF783FF0120F5
:1013900000F0E2FD0820FFF77DFF012000F0DCFDFA
:1013A0000120FFF777FF012000F0D6FD012000F0BB
:1013B000D3FD0620FFF76EFF012000F0CDFD0C20CD
:1013C000FFF768FF00BF80BD80B582B000AF7860D6
:1013D00006E07B685A1C7A601B781846FFF774FF9A
:1013E0007B681B78002BF4D100BF00BF0837BD46D7
:1013F00080BD000080B584B000AF78607B681B7F43
:10140000082B48D1264B1B68002B0AD10C21786889
:1014100002F01EFA0346234A1360214B01221A6090
:1014200039E00C21786802F013FA03461E4A136073
:101430001D4B1A681B4B1B689A4207D91A4B1A6836
:10144000184B1B68D31A194A13600DE0154B1A6824
:10145000154B1B689A4207D9134B1A68114B1B682E
:10146000D31A013B114A1360114BFB600F4B1B68F1
:101470001846FFF72FFC03461946F868FFF736FDBC
:1014800003461A460B4B1A607B681B6800225A629F
:10149000034B00221A6000BF1037BD4680BD00BF5D
:1014A0009002002084020020880200208C0200208C
:1014B000002474499402002080B58AB000AF00F087
:1014C000E9FC00F041F900F045FA00F083F900F082
:1014D000D1F9914801F0BAFD0C21904801F058FE75
:1014E000FFF735FF00210020FFF712FF8C48FFF7C0
:1014F0006BFF4FF47A7000F02FFD00210120FFF701
:1015000007FF8848FFF760FF4FF4FA6000F024FD02
:10151000FFF7F4FE00210020FFF7FAFE8248FFF7F4
:1015200053FF4FF07E537B624FF07E533B620022AD
:101530004FF400517D4801F043F900224FF48051EF
:101540007A4801F03DF94FF00003FB604FF00003D3
:10155000FB610023BB6100237B6100233B61744B73
:101560001B681846FFF7D4FD03461A4671497248B6
:1015700003F0AAFB00210020FFF7CAFE6A48FFF72C
:1015800023FF08210020FFF7C3FE6B48FFF71CFF75
:101590000A2000F0E1FCFFF7B1FE654B1B6818461E
:1015A000FFF7B6FD0346A3F51643BB60604B1B680F
:1015B0001846FFF7ADFD0346A3F51043EC3B7B60F7
:1015C000BB6813F5FA7F0BDBBB68B3F5FA7F07DC6A
:1015D0004FF07E51386AFFF7CDFA03463B620EE0CA
:1015E0007B6813F5FA7F0ADB7B68B3F5FA7F06DCCC
:1015F0004FF07E51786AFFF7BDFA03467B62796A45
:10160000386AFFF773FC0346FB60F969F868FFF777
:1016100075FD0346002B04D00123BB61FB68FB6111
:101620001AE0F969F868FFF74BFD0346002B04D078
:101630000023BB61FB68FB610EE04FF0FF33BB6131
:1016400000224FF40051394801F0BAF800224FF45B
:101650008051364801F0B4F8BB69012B16D17B6983
:1016600001337B617B69092B29DD00237B6100232A
:101670003B6100224FF400512C4801F0A1F80122F7
:101680004FF48051294801F09BF818E0BB69002B0A
:1016900015D13B6901333B613B69092B0FDD002309
:1016A0003B6100237B6101224FF400511F4801F090
:1016B00087F800224FF480511C4801F081F81F493F
:1016C000386AFFF711FD0346002B02D04FF07E531E
:1016D0003B621A49786AFFF707FD0346002B02D0E8
:1016E0004FF07E537B6200210120FFF711FE14486A
:1016F000FFF76AFEF868FEF797FE02460B461149AF
:101700000D4803F0E1FA0A210120FFF701FE0A4823
:10171000FFF75AFE23E700BFF40100203C0200203F
:10172000408500085085000864850008000C0140D1
:1017300094020020708500089802002000004843B1
:10174000788500088485000880B590B000AF07F167
:10175000180328220021184603F019FB3B1D002224
:101760001A605A609A60DA601A610123BB614FF413
:101770008033FB6100233B620123BB6202237B6356
:101780004FF48033BB634FF4E013FB6307F118039E
:10179000184601F02DF80346002B01D000F05EF949
:1017A0000F237B600223BB600023FB604FF4806348
:1017B0003B6100237B613B1D0221184601F09AFA30
:1017C0000346002B01D000F049F900BF4037BD4669
:1017D00080BD000080B586B000AF07F1080300228D
:1017E0001A605A609A60DA603B4600221A605A60BA
:1017F0001E4B1F4A1A601D4B47225A601B4B00228A
:101800009A601A4B4FF6FE72DA60184B00221A618A
:10181000164B00225A61154B00229A61134801F0C1
:10182000C5FB0346002B01D000F018F94FF480539C
:10183000BB6007F1080319460C4801F041FF03465D
:10184000002B01D000F00AF900233B6000237B60ED
:101850003B461946054802F099FA0346002B01D091
:1018600000F0FCF800BF1837BD4680BDF401002031
:10187000002C014080B58AB000AF07F118030022A8
:101880001A605A609A60DA6007F1100300221A6049
:101890005A603B4600221A605A609A60DA602B4B0D
:1018A0002B4A1A60294B47225A60284B00229A6023
:1018B000264B4FF6FE72DA60244B00221A61234B4E
:1018C00000229A61214801F071FB0346002B01D0F0
:1018D00000F0C4F84FF48053BB6107F118031946B8
:1018E0001A4801F0EDFE0346002B01D000F0B6F8D7
:1018F000164801F0F5FB0346002B01D000F0AEF8CE
:1019000000233B6100237B6107F1100319460F4858
:1019100002F03CFA0346002B01D000F09FF80223AE
:101920003B6001237B600023BB600023FB603B46E0
:101930000C221946054801F027FE0346002B01D072
:1019400000F08CF800BF2837BD4680BD3C02002067
:101950000008004080B588B000AF07F110030022F6
:101960001A605A609A60DA60384B9B69374A43F0D4
:1019700010039361354B9B6903F01003FB60FB6818
:10198000324B9B69314A43F0200393612F4B9B6993
:1019900003F02003BB60BB682C4B9B692B4A43F0D0
:1019A00004039361294B9B6903F004037B607B680C
:1019B000264B9B69254A43F008039361234B9B699F
:1019C00003F008033B603B6800224FF400512048BD
:1019D00000F0F6FE0022FE211E4800F0F1FE00227B
:1019E0004FF440511C4800F0EBFE4FF400533B61B4
:1019F00001237B610023BB610223FB6107F110031C
:101A00001946134800F058FDFE233B6101237B611A
:101A10000023BB610223FB6107F1100319460D4847
:101A200000F04AFD4FF440533B6101237B610023EA
:101A3000BB610223FB6107F110031946064800F061
:101A40003BFD00BF2037BD4680BD00BF00100240F7
:101A50000010014000080140000C014080B400AFBC
:101A600072B600BF00BFFDE780B584B000AF1D4B6C
:101A70009B691C4A43F0010393611A4B9B6903F075
:101A80000103BB60BB68174BDB69164A43F0805308
:101A9000D361144BDB6903F080537B607B680022C9
:101AA0000021042000F053FB042000F06CFB002216
:101AB0000021052000F04BFB052000F064FB0A4BE1
:101AC0005B68FB60FB6823F0E063FB60FB6843F04E
:101AD0000073FB60044AFB68536000BF1037BD46CB
:101AE00080BD00BF001002400000014080B58AB0F8
:101AF00000AF786007F1180300221A605A609A60FC
:101B0000DA607B681B68334A93422CD1324B9B6965
:101B1000314A43F4006393612F4B9B6903F40063E4
:101B20007B617B6900220021182000F010FB182047
:101B300000F029FB00220021192000F008FB1920E9
:101B400000F021FB002200211A2000F000FB1A20E7
:101B500000F019FB002200211B2000F0F8FA1B20E6
:101B600000F011FB31E07B681B681C4A93422CD1CA
:101B7000194BDB69184A43F00403D361164BDB6948
:101B800003F004033B613B69134B9B69124A43F02A
:101B900008039361104B9B6903F00803FB60FB682B
:101BA0004FF40073BB610023FB6100233B6207F12C
:101BB000180319460A4800F07FFC002200211E206D
:101BC00000F0C5FA1E2000F0DEFA00BF2837BD463F
:101BD00080BD00BF002C0140001002400008004002
:101BE000000C014080B400AF00BFFDE780B400AF3F
:101BF00000BFFDE780B400AF00BFFDE780B400AFD9
:101C000000BFFDE780B400AF00BFFDE780B400AFC8
:101C100000BFBD4680BC704780B400AF00BFBD466A
:101C200080BC704780B400AF00BFBD4680BC704729
:101C300080B500AF00F074F900BF80BD80B500AF83
:101C400000F0BCFA00BF80BD80B400AF00BFBD464D
:101C500080BC704780B500AF024801F0A5FB00BF13
:101C600080BD00BFF401002080B500AF024801F044
:101C70009BFB00BF80BD00BFF401002080B500AF1A
:101C8000024801F091FB00BF80BD00BFF4010020BD
:101C900080B500AF024801F087FB00BF80BD00BFE8
:101CA000F401002080B500AF024801F07DFB00BFC9
:101CB00080BD00BF3C02002080B400AF0123184665
:101CC000BD4680BC704780B582B000AF7860396097
:101CD00003F0B0F8034616221A604FF0FF3318469F
:101CE0000837BD4680BD80B582B000AF78604FF048
:101CF000FF317868FFF7E7FF00BFFDE780B586B0EA
:101D000000AFF860B9607A6000237B610AE0AFF34E
:101D100000800146BB685A1CBA60CAB21A707B695F
:101D200001337B617A697B689A42F0DB7B681846F5
:101D30001837BD4680BD80B586B000AFF860B96089
:101D40007A6000237B6109E0BB685A1CBA601B788B
:101D50001846AFF300807B6901337B617A697B6849
:101D60009A42F1DB7B6818461837BD4680BD80B4C7
:101D700083B000AF78604FF0FF3318460C37BD4694
:101D800080BC704780B483B000AF786039603B6836
:101D90004FF400525A60002318460C37BD4680BCF1
:101DA000704780B483B000AF7860012318460C37C9
:101DB000BD4680BC704780B485B000AFF860B960A4
:101DC0007A60002318461437BD4680BC7047000077
:101DD00080B586B000AF7860144A154BD31A7B618A
:101DE0007B693B61134B1B68002B02D1114B124ADC
:101DF0001A60104B1A687B6813443A699A4207D2FA
:101E000003F018F803460C221A604FF0FF3309E084
:101E1000084B1B68FB60074B1A687B681344054A34
:101E20001360FB6818461837BD4680BD005000207F
:101E300000040000B80200203004002080B400AF8D
:101E400000BFBD4680BC7047FFF7F8FF0B480C4948
:101E50000C4A002302E0D458C4500433C4188C4206
:101E6000F9D3094A094C002301E013600432A2426D
:101E7000FBD302F0E5FFFFF71FFB704700000020D7
:101E8000D4010020F0890008D80100202C04002093
:101E9000FEE7000080B500AF084B1B68074A43F01F
:101EA00010031360032000F047F90F2000F008F83A
:101EB000FFF7DAFD0023184680BD00BF0020024076
:101EC00080B582B000AF7860124B1A68124B1B7855
:101ED00019464FF47A73B3FBF1F3B2FBF3F31846F0
:101EE00000F05FF90346002B01D001230EE07B6870
:101EF0000F2B0AD8002279684FF0FF3000F027F945
:101F0000064A7B681360002300E001231846083767
:101F1000BD4680BD00000020080000200400002015
:101F200080B400AF054B1B781A46054B1B68134461
:101F3000034A136000BFBD4680BC70470800002004
:101F4000BC02002080B400AF024B1B681846BD469F
:101F500080BC7047BC02002080B584B000AF7860C0
:101F6000FFF7F0FFB8607B68FB60FB68B3F1FF3FF1
:101F700005D00A4B1B781A46FB681344FB6000BF70
:101F8000FFF7E0FF0246BB68D31AFA689A42F7D817
:101F900000BF00BF1037BD4680BD00BF0800002055
:101FA00080B485B000AF78607B6803F00703FB6006
:101FB0000C4BDB68BB60BA684FF6FF031340BB6095
:101FC000FB681A02BB68134343F0BF6343F400335A
:101FD000BB60044ABB68D36000BF1437BD4680BCF9
:101FE000704700BF00ED00E080B400AF044BDB6839
:101FF0001B0A03F007031846BD4680BC704700BFAC
:1020000000ED00E080B483B000AF0346FB7197F9A8
:102010000730002B0BDBFB7903F01F02064997F911
:1020200007305B09012000FA02F241F8232000BFCB
:102030000C37BD4680BC704700E100E080B483B03F
:1020400000AF03463960FB7197F90730002B0ADBBC
:102050003B68DAB20C4997F907301201D2B20B444F
:1020600083F800230AE03B68DAB20849FB7903F001
:102070000F03043B1201D2B20B441A7600BF0C3797
:10208000BD4680BC704700BF00E100E000ED00E00D
:1020900080B489B000AFF860B9607A60FB6803F083
:1020A0000703FB61FB69C3F10703042B28BF04236B
:1020B000BB61FB690433062B02D9FB69033B00E0DB
:1020C00000237B614FF0FF32BB6902FA03F3DA436E
:1020D000BB681A407B699A404FF0FF317B6901FA77
:1020E00003F3D9437B680B40134318462437BD469E
:1020F00080BC704780B582B000AF78607B68013BE0
:10210000B3F1807F01D301230FE00A4A7B68013BD2
:1021100053600F214FF0FF30FFF790FF054B002277
:102120009A60044B07221A60002318460837BD4600
:1021300080BD00BF10E000E080B582B000AF7860E5
:102140007868FFF72DFF00BF0837BD4680BD80B51A
:1021500086B000AF0346B9607A60FB7300237B61F1
:10216000FFF742FF78617A68B9687869FFF790FFF6
:10217000024697F90F3011461846FFF75FFF00BF80
:102180001837BD4680BD80B582B000AF0346FB71F5
:1021900097F907301846FFF735FF00BF0837BD46EF
:1021A00080BD80B582B000AF78607868FFF7A2FF8D
:1021B000034618460837BD4680BD000080B582B092
:1021C00000AF00237B606B4BDB6803F01003002B38
:1021D00005D1684BDB6803F00403002B0ED0664B7F
:1021E0009B687B60644B4FF0FF329A6000F0F4F81C
:1021F000786800F0CCF8604B00221A705D4BDB6809
:1022000003F02003002B00F0A0805A4B2022DA605C
:10221000594B1B78DBB2002B00F09780564B1B7894
:10222000DBB2012B2DD1544B5B68013B524A53600A
:10223000514B5B68002B17D04F4B9B687B607868D5
:1022400000F09CF84C4B9B6803F580637B604A4A26
:102250007B689360474B1B69464A23F00203136176
:10226000786800F009F970E04FF0FF337B60424A74
:102270007B689360404B00221A70786800F07EF80B
:1022800063E03D4B1B78DBB2022B0CD1394B1B6951
:10229000384A23F004031361002000F06FF8364B36
:1022A00000221A7051E0344B5B68013B324A5360A4
:1022B000314B5B68002B24D02F4B9B6802332E4A96
:1022C00093602D4B9B687B602B4BD3E904014FF04F
:1022D00000024FF00003020C42EA01420B0C2649B7
:1022E000C1E90423234B1B69224A23F00103136134
:1022F000214BD3E9042393B21946786800F050F8D3
:1023000023E01D4B1B78DBB2032B05D11A4B9B68D6
:10231000184600F033F811E0174B1B78DBB2042BA2
:1023200006D1154B9B68023B184600F027F805E0E4
:10233000114B9B68063B184600F020F80E4B4FF0FF
:10234000FF329A600C4B00221A700B4B1B78DBB2E9
:10235000002B0BD1074B1B69064A23F007031361BF
:10236000044B1B69034A23F4A053136100BF0837D1
:10237000BD4680BD00200240C002002080B483B072
:1023800000AF786000BF0C37BD4680BC704780B49A
:1023900083B000AF786000BF0C37BD4680BC70478B
:1023A00080B483B000AF78600B467B80084B00227E
:1023B000DA61084B1B69074A43F0010313617B682C
:1023C0007A881A8000BF0C37BD4680BC704700BFBA
:1023D000C00200200020024080B483B000AF002380
:1023E0007B60234BDB6803F01003002B09D0214BEB
:1023F000DB6943F002031F4AD3617B6843F010039B
:102400007B601B4BDB6803F00403002B09D0194BE6
:10241000DB6943F00103174AD3617B6843F004038F
:102420007B60134BDB6903F00103002B0BD0114BD6
:10243000DB6943F004030F4AD3610D4BDB690C4A9F
:1024400023F00103D3617B6840F20112934206D16D
:10245000074BDB69064A23F00103D36102E0044A1B
:102460007B68D36000BF0C37BD4680BC704700BF9F
:1024700000200240C002002080B483B000AF78602A
:102480000B4B0022DA610B4B1B690A4A43F0020333
:102490001361084A7B685361064B1B69054A43F088
:1024A0004003136100BF0C37BD4680BC704700BFBE
:1024B000C00200200020024080B48BB000AF7860E2
:1024C000396000237B6200233B6269E101227B6A61
:1024D00002FA03F3FB613B681B68FA691340BB61B6
:1024E000BA69FB699A4240F058813B685B689A4A36
:1024F00093425ED0984A934275D8984A934258D0F6
:10250000964A93426FD8964A934252D0944A934245
:1025100069D8944A93424CD0924A934263D8924AE3
:10252000934246D0904A93425DD8122B2AD8122B60
:1025300059D801A252F823F0B32500088D250008D0
:102540009F250008E1250008E7250008E725000889
:10255000E7250008E7250008E7250008E72500082B
:10256000E7250008E7250008E7250008E72500081B
:10257000E7250008E7250008E7250008952500085D
:10258000A9250008794A934213D02CE03B68DB6808
:102590003B6229E03B68DB6804333B6224E03B6834
:1025A000DB6808333B621FE03B68DB680C333B624F
:1025B0001AE03B689B68002B02D104233B6213E0C6
:1025C0003B689B68012B05D108233B627B68FA6955
:1025D0001A6109E008233B627B68FA695A6103E0EB
:1025E00000233B6200E000BFBB69FF2B01D87B6882
:1025F00001E07B6804337B61BB69FF2B02D87B6AF7
:102600009B0002E07B6A083B9B003B617B691A6888
:102610000F213B6901FA03F3DB431A40396A3B6936
:1026200001FA03F31A437B691A603B685B6803F0A5
:102630008053002B00F0B1804D4B9B694C4A43F016
:10264000010393614A4B9B6903F00103BB60BB68C4
:10265000484A7B6A9B08023352F82330FB607B6A4E
:1026600003F003039B000F2202FA03F3DB43FA6833
:102670001340FB607B68404A934213D07B683F4A1B
:1026800093420DD07B683E4A934207D07B683D4A17
:10269000934201D1032306E0042304E0022302E075
:1026A000012300E000237A6A02F0030292009340C3
:1026B000FA681343FB602F497B6A9B080233FA6870
:1026C00041F823203B685B6803F48013002B06D09D
:1026D0002D4B9A682C49BB6913438B6006E02A4B4B
:1026E0009A68BB69DB43284913408B603B685B6891
:1026F00003F40013002B06D0234BDA682249BB6990
:102700001343CB6006E0204BDA68BB69DB431E490C
:102710001340CB603B685B6803F40033002B06D0AA
:10272000194B5A681849BB6913434B6006E0164BB6
:102730005A68BB69DB43144913404B603B685B68D4
:1027400003F48033002B21D00F4B1A680E49BB696C
:1027500013430B6021E000BF000032100000311075
:1027600000002210000021100000121000001110C3
:10277000001002400000014000080140000C014030
:102780000010014000140140000401400B4B1A6886
:10279000BB69DB43094913400B607B6A01337B62F1
:1027A0003B681A687B6A22FA03F3002B7FF48EAE33
:1027B00000BF00BF2C37BD4680BC704700040140FD
:1027C00080B483B000AF78600B467B8013467B708B
:1027D0007B78002B03D07A887B681A6103E07B88C2
:1027E0001A047B681A6100BF0C37BD4680BC704775
:1027F00080B586B000AF78607B68002B01D10123E3
:1028000072E27B681B6803F00103002B00F08780F5
:10281000924B5B6803F00C03042B0CD08F4B5B686E
:1028200003F00C03082B12D18C4B5B6803F480334C
:10283000B3F5803F0BD1894B1B6803F40033002BA9
:102840006CD07B685B68002B68D101234CE27B680D
:102850005B68B3F5803F06D1804B1B687F4A43F429
:10286000803313602EE07B685B68002B0CD17B4BC0
:102870001B687A4A23F480331360784B1B68774ACD
:1028800023F4802313601DE07B685B68B3F5A02F01
:102890000CD1724B1B68714A43F4802313606F4B59
:1028A0001B686E4A43F4803313600BE06B4B1B686C
:1028B0006A4A23F480331360684B1B68674A23F429
:1028C000802313607B685B68002B13D0FFF73AFB13
:1028D000386108E0FFF736FB02463B69D31A642BE8
:1028E00001D9032300E25D4B1B6803F40033002B86
:1028F000F0D014E0FFF726FB386108E0FFF722FB79
:1029000002463B69D31A642B01D90323ECE1534BF4
:102910001B6803F40033002BF0D100E000BF7B689C
:102920001B6803F00203002B63D04C4B5B6803F081
:102930000C03002B0BD0494B5B6803F00C03082BF6
:102940001CD1464B5B6803F48033002B16D1434BFC
:102950001B6803F00203002B05D07B681B69012B69
:1029600001D00123C0E13D4B1B6823F0F8027B68D6
:102970005B69DB00394913430B603AE07B681B69F4
:10298000002B20D0364B01221A60FFF7DBFA3861AA
:1029900008E0FFF7D7FA02463B69D31A022B01D9A8
:1029A0000323A1E12D4B1B6803F00203002BF0D0A1
:1029B0002A4B1B6823F0F8027B685B69DB00274920
:1029C00013430B6015E0264B00221A60FFF7BAFA9A
:1029D000386108E0FFF7B6FA02463B69D31A022BCA
:1029E00001D9032380E11D4B1B6803F00203002B78
:1029F000F0D17B681B6803F00803002B3AD07B689A
:102A00009B69002B19D0174B01221A60FFF79AFA25
:102A1000386108E0FFF796FA02463B69D31A022BA9
:102A200001D9032360E10D4B5B6A03F00203002B25
:102A3000F0D0012000F09CFA1CE00A4B00221A6042
:102A4000FFF780FA38610FE0FFF77CFA02463B6936
:102A5000D31A022B08D9032346E100BF001002401D
:102A60000000424280044242924B5B6A03F0020340
:102A7000002BE9D17B681B6803F00403002B00F0F6
:102A8000A6800023FB758B4BDB6903F08053002B82
:102A90000DD1884BDB69874A43F08053D361854B66
:102AA000DB6903F08053BB60BB680123FB75824B7D
:102AB0001B6803F48073002B18D17F4B1B687E4A80
:102AC00043F480731360FFF73DFA386108E0FFF7C5
:102AD00039FA02463B69D31A642B01D9032303E177
:102AE000754B1B6803F48073002BF0D07B68DB68A8
:102AF000012B06D16F4B1B6A6E4A43F00103136230
:102B00002DE07B68DB68002B0CD16A4B1B6A694A9D
:102B100023F001031362674B1B6A664A23F0040328
:102B200013621CE07B68DB68052B0CD1614B1B6AD0
:102B3000604A43F0040313625E4B1B6A5D4A43F034
:102B4000010313620BE05B4B1B6A5A4A23F001033B
:102B50001362584B1B6A574A23F0040313627B68C5
:102B6000DB68002B15D0FFF7EDF938610AE0FFF7BD
:102B7000E9F902463B69D31A41F28832934201D9FE
:102B80000323B1E04B4B1B6A03F00203002BEED092
:102B900014E0FFF7D7F938610AE0FFF7D3F90246EE
:102BA0003B69D31A41F28832934201D903239BE057
:102BB000404B1B6A03F00203002BEED1FB7D012B7F
:102BC00005D13C4BDB693B4A23F08053D3617B68E2
:102BD000DB69002B00F08780364B5B6803F00C0349
:102BE000082B61D07B68DB69022B46D1334B002276
:102BF0001A60FFF7A7F9386108E0FFF7A3F902466A
:102C00003B69D31A022B01D903236DE0294B1B68C2
:102C100003F00073002BF0D17B681B6AB3F5803F93
:102C200008D1244B5B6823F400327B689B68214900
:102C300013434B601F4B5B6823F474127B68196A63
:102C40007B685B6A0B431B4913434B601B4B0122A0
:102C50001A60FFF777F9386108E0FFF773F9024669
:102C60003B69D31A022B01D903233DE0114B1B68AA
:102C700003F00073002BF0D035E0104B00221A60F7
:102C8000FFF760F9386108E0FFF75CF902463B693D
:102C9000D31A022B01D9032326E0064B1B6803F04D
:102CA0000073002BF0D11EE07B68DB69012B07D19C
:102CB000012319E000100240007000406000424211
:102CC0000B4B5B68FB60FB6803F480327B681B6A1C
:102CD0009A4206D1FB6803F470127B685B6A9A42E1
:102CE00001D0012300E0002318461837BD4680BDFF
:102CF0000010024080B584B000AF786039607B6816
:102D0000002B01D10123D0E06A4B1B6803F00703BD
:102D10003A689A4210D9674B1B6823F0070265494D
:102D20003B6813430B60634B1B6803F007033A686F
:102D30009A4201D00123B8E07B681B6803F00203CC
:102D4000002B20D07B681B6803F00403002B05D008
:102D5000594B5B68584A43F4E06353607B681B68D7
:102D600003F00803002B05D0534B5B68524A43F431
:102D700060535360504B5B6823F0F0027B689B68A4
:102D80004D4913434B607B681B6803F00103002B24
:102D900040D07B685B68012B07D1474B1B6803F46D
:102DA0000033002B15D101237FE07B685B68022B89
:102DB00007D1414B1B6803F00073002B09D101239D
:102DC00073E03D4B1B6803F00203002B01D101238C
:102DD0006BE0394B5B6823F003027B685B68364924
:102DE00013434B60FFF7AEF8F8600AE0FFF7AAF86C
:102DF0000246FB68D31A41F28832934201D9032379
:102E000053E02D4B5B6803F00C027B685B689B0012
:102E10009A42EBD1274B1B6803F007033A689A42AA
:102E200010D2244B1B6823F0070222493B6813434E
:102E30000B60204B1B6803F007033A689A4201D0ED
:102E4000012332E07B681B6803F00403002B08D0E9
:102E5000194B5B6823F4E0627B68DB681649134317
:102E60004B607B681B6803F00803002B09D0124BF2
:102E70005B6823F460527B681B69DB000E491343D7
:102E80004B6000F021F802460B4B5B681B0903F016
:102E90000F030A49CB5C22FA03F3094A1360094B7A
:102EA0001B681846FFF70CF8002318461037BD467C
:102EB00080BD00BF00200240001002408C85000849
:102EC000000000200400002080B487B000AF002381
:102ED000FB600023BB6000237B6100237B60002339
:102EE0003B611E4B5B68FB60FB6803F00C03042B2B
:102EF00002D0082B03D027E0194B3B6127E0FB6889
:102F00009B0C03F00F03174AD35C7B60FB6803F450
:102F10008033002B10D0114B5B685B0C03F0010376
:102F2000114AD35CBB607B680D4A03FB02F2BB68AD
:102F3000B2FBF3F37B6104E07B680C4A02FB03F312
:102F40007B617B693B6102E0054B3B6100BF3B69F4
:102F500018461C37BD4680BC704700BF00100240B9
:102F600000127A009C850008AC85000800093D002D
:102F700080B485B000AF78600A4B1B680A4AA2FB98
:102F800003235B0A7A6802FB03F3FB6000BFFB6864
:102F90005A1EFA60002BF9D100BF00BF1437BD469E
:102FA00080BC704700000020D34D621080B582B015
:102FB00000AF78607B68002B01D1012341E07B6882
:102FC00093F83D30DBB2002B06D17B68002283F8FA
:102FD0003C207868FEF78AFD7B68022283F83D205A
:102FE0007B681A687B6804331946104600F098FC29
:102FF0007B68012283F846207B68012283F83E200B
:103000007B68012283F83F207B68012283F84020FF
:103010007B68012283F841207B68012283F84220EB
:103020007B68012283F843207B68012283F84420D7
:103030007B68012283F845207B68012283F83D20CC
:10304000002318460837BD4680BD000080B485B017
:1030500000AF78607B6893F83D30DBB2012B01D084
:10306000012332E07B68022283F83D207B681B68E5
:10307000184A93420ED07B681B68B3F1804F09D089
:103080007B681B68144A934204D07B681B68134A10
:10309000934211D17B681B689B6803F00703FB60B8
:1030A000FB68062B10D07B681B681A687B681B685E
:1030B00042F001021A6007E07B681B681A687B68AF
:1030C0001B6842F001021A60002318461437BD46FF
:1030D00080BC7047002C0140000400400008004004
:1030E00080B582B000AF78607B68002B01D10123EE
:1030F00041E07B6893F83D30DBB2002B06D17B6862
:10310000002283F83C20786800F039F87B680222BE
:1031100083F83D207B681A687B68043319461046A3
:1031200000F0FEFB7B68012283F846207B680122C9
:1031300083F83E207B68012283F83F207B680122D0
:1031400083F840207B68012283F841207B680122BC
:1031500083F842207B68012283F843207B680122A8
:1031600083F844207B68012283F845207B68012294
:1031700083F83D20002318460837BD4680BD80B443
:1031800083B000AF786000BF0C37BD4680BC70478D
:1031900080B584B000AF786039600023FB733B6872
:1031A000002B04D17B6893F83E30DBB213E03B6820
:1031B000042B04D17B6893F83F30DBB20BE03B6813
:1031C000082B04D17B6893F84030DBB203E07B68C6
:1031D00093F84130DBB2BB733B68002B04D17B68B2
:1031E00093F84230DBB213E03B68042B04D17B68D8
:1031F00093F84330DBB20BE03B68082B04D17B68CB
:1032000093F84430DBB203E07B6893F84530DBB2DF
:103210007B73BB7B012B02D17B7B012B01D0012374
:10322000B8E03B68002B04D17B68022283F83E2083
:1032300013E03B68042B04D17B68022283F83F2013
:103240000BE03B68082B04D17B68022283F8402006
:1032500003E07B68022283F841203B68002B04D105
:103260007B68022283F8422013E03B68042B04D1E0
:103270007B68022283F843200BE03B68082B04D1D3
:103280007B68022283F8442003E07B68022283F8F3
:1032900045203B680C2B41D801A252F823F000BF17
:1032A000D53200081D3300081D3300081D33000807
:1032B000E73200081D3300081D3300081D330008E5
:1032C000F93200081D3300081D3300081D330008C3
:1032D0000B3300087B681B68DA687B681B6842F068
:1032E0000202DA601DE07B681B68DA687B681B6895
:1032F00042F00402DA6014E07B681B68DA687B68DD
:103300001B6842F00802DA600BE07B681B68DA6831
:103310007B681B6842F01002DA6002E00123FB7355
:1033200000BFFB7B002B34D17B681B68012239680E
:10333000184600F006FD7B681B68184A93420ED0C1
:103340007B681B68B3F1804F09D07B681B68144A07
:10335000934204D07B681B68124A934211D17B6868
:103360001B689B6803F00703BB60BB68062B10D08B
:103370007B681B681A687B681B6842F001021A6050
:1033800007E07B681B681A687B681B6842F00102D3
:103390001A60FB7B18461037BD4680BD002C0140EB
:1033A000000400400008004080B584B000AF7860A1
:1033B0007B681B68DB68FB607B681B681B69BB6004
:1033C000BB6803F00203002B20D0FB6803F002036C
:1033D000002B1BD07B681B686FF002021A617B68B0
:1033E00001221A777B681B689B6903F00303002B9B
:1033F00003D07868FDF7FEFF05E0786800F075FA05
:10340000786800F07BFA7B6800221A77BB6803F0CB
:103410000403002B20D0FB6803F00403002B1BD017
:103420007B681B686FF004021A617B6802221A77BE
:103430007B681B689B6903F44073002B03D078689A
:10344000FDF7D8FF05E0786800F04FFA786800F0E3
:1034500055FA7B6800221A77BB6803F00803002B3B
:1034600020D0FB6803F00803002B1BD07B681B688F
:103470006FF008021A617B6804221A777B681B6868
:10348000DB6903F00303002B03D07868FDF7B2FF7C
:1034900005E0786800F029FA786800F02FFA7B6878
:1034A00000221A77BB6803F01003002B20D0FB68C2
:1034B00003F01003002B1BD07B681B686FF0100219
:1034C0001A617B6808221A777B681B68DB6903F442
:1034D0004073002B03D07868FDF78CFF05E0786817
:1034E00000F003FA786800F009FA7B6800221A7786
:1034F000BB6803F00103002B0CD0FB6803F0010351
:10350000002B07D07B681B686FF001021A61786896
:1035100000F0E2F9BB6803F08003002B0CD0FB68DD
:1035200003F08003002B07D07B681B686FF08002DC
:103530001A61786800F091FCBB6803F04003002B2F
:103540000CD0FB6803F04003002B07D07B681B689E
:103550006FF040021A61786800F0D9F9BB6803F097
:103560002003002B0CD0FB6803F02003002B07D0B6
:103570007B681B686FF020021A61786800F064FCB9
:1035800000BF1037BD4680BD80B586B000AFF86083
:10359000B9607A600023FB75FB6893F83C30012B1F
:1035A00001D1022388E0FB68012283F83C207B687C
:1035B000002B1BD1FB681868BB681968BB685A6888
:1035C000BB68DB6800F01AFAFB681B689A69FB6845
:1035D0001B6822F00C029A61FB681B689969BB6842
:1035E0009A68FB681B680A439A6160E07B68042B59
:1035F0001CD1FB681868BB681968BB685A68BB684F
:10360000DB6800F083FAFB681B689A69FB681B683B
:1036100022F440629A61FB681B689969BB689B68E9
:103620001A02FB681B680A439A6140E07B68082B1A
:103630001BD1FB681868BB681968BB685A68BB680F
:10364000DB6800F0CEFAFB681B68DA69FB681B6870
:1036500022F00C02DA61FB681B68D969BB689A68C2
:10366000FB681B680A43DA6121E07B680C2B1CD1E4
:10367000FB681868BB681968BB685A68BB68DB6878
:1036800000F0EAFAFB681B68DA69FB681B6822F441
:103690004062DA61FB681B68D969BB689B681A02E3
:1036A000FB681B680A43DA6101E00123FB75FB68D4
:1036B000002283F83C20FB7D18461837BD4680BDAC
:1036C00080B584B000AF786039600023FB737B68FD
:1036D00093F83C30012B01D10223B4E07B68012236
:1036E00083F83C207B68022283F83D207B681B68BE
:1036F0009B68BB60BB6823F07703BB60BB6823F4A7
:103700007F43BB607B681B68BA689A603B681B6834
:10371000B3F5005F3ED0B3F5005F00F28780B3F5EC
:10372000805F00F08680B3F5805F7FD8702B1AD061
:10373000702B7BD8602B50D0602B77D8502B3CD08F
:10374000502B73D8402B58D0402B6FD8302B64D0DF
:10375000302B6BD8202B60D0202B67D8002B5CD06F
:10376000102B5AD062E07B6818683B6899683B6808
:103770005A683B68DB6800F0C5FA7B681B689B6889
:10378000BB60BB6843F07703BB607B681B68BA68AB
:103790009A604FE07B6818683B6899683B685A6894
:1037A0003B68DB6800F0AEFA7B681B689A687B6850
:1037B0001B6842F480429A603CE07B6818683B6872
:1037C00059683B68DB681A4600F072F97B681B6831
:1037D0005021184600F07CFA2CE07B6818683B68A2
:1037E00059683B68DB681A4600F0CCF97B681B68B7
:1037F0006021184600F06CFA1CE07B6818683B6892
:1038000059683B68DB681A4600F052F97B681B6810
:103810004021184600F05CFA0CE07B681A683B68AF
:103820001B681946104600F053FA03E00123FB73AE
:1038300000E000BF7B68012283F83D207B68002206
:1038400083F83C20FB7B18461037BD4680BD000046
:1038500080B485B000AF786039600023FB603B68BE
:103860000C2B31D801A252F823F000BFA138000878
:10387000C9380008C9380008C9380008AB38000842
:10388000C9380008C9380008C9380008B538000828
:10389000C9380008C9380008C9380008BF3800080E
:1038A0007B681B685B6BFB600FE07B681B689B6B36
:1038B000FB600AE07B681B68DB6BFB6005E07B68F4
:1038C0001B681B6CFB6000E000BFFB6818461437E8
:1038D000BD4680BC704700BF80B483B000AF786045
:1038E00000BF0C37BD4680BC704780B483B000AFCA
:1038F000786000BF0C37BD4680BC704780B483B091
:1039000000AF786000BF0C37BD4680BC704780B404
:1039100083B000AF786000BF0C37BD4680BC7047F5
:1039200080B485B000AF786039607B681B68FB604D
:103930007B682F4A93420BD07B68B3F1804F07D04E
:103940007B682C4A934203D07B682B4A934208D170
:10395000FB6823F07003FB603B685B68FA68134305
:10396000FB607B68224A93420BD07B68B3F1804FA7
:1039700007D07B681F4A934203D07B681E4A93425C
:1039800008D1FB6823F44073FB603B68DB68FA688E
:103990001343FB60FB6823F080023B685B691343C1
:1039A000FB607B68FA681A603B689A687B68DA6239
:1039B0003B681A687B689A627B680D4A934203D120
:1039C0003B681A697B681A637B6801225A617B68CD
:1039D0001B6903F00103002B05D07B681B6923F0F2
:1039E00001027B681A6100BF1437BD4680BC704776
:1039F000002C0140000400400008004080B487B063
:103A000000AFF860B9607A603B60FB681B6A3B619D
:103A1000FB681B6A23F00102FB681A62FB689B6962
:103A20007B61FB681F4A93420BD0FB68B3F1804F68
:103A300007D0FB681C4A934203D0FB681B4A9342A1
:103A400001D1012300E00023002B08D07B6923F083
:103A500003037B617A697B6813437B6103E07B69C5
:103A600043F001037B617B6923F0F0037B613B68DA
:103A70001B01DBB27A6913437B613B6923F00A03C4
:103A80003B61BB6803F00A033A6913433B61FB687F
:103A90007A699A61FB683A691A6200BF1C37BD46B1
:103AA00080BC7047002C014000040040000800402A
:103AB00080B487B000AFF860B9607A60FB681B6AB9
:103AC0007B61FB681B6A23F00102FB681A62FB68DA
:103AD0009B693B613B6923F0F0033B617B681B0101
:103AE0003A6913433B617B6923F00A037B617A697E
:103AF000BB6813437B61FB683A699A61FB687A692A
:103B00001A6200BF1C37BD4680BC704780B487B0C6
:103B100000AFF860B9607A603B60FB681B6A7B614C
:103B2000FB681B6A23F01002FB681A62FB689B6942
:103B30003B613B6923F440733B617B681B023A693C
:103B400013433B613B6923F470433B613B681B03B8
:103B50009BB23A6913433B617B6923F0A0037B610D
:103B6000BB681B0103F0A0037A6913437B61FB6808
:103B70003A699A61FB687A691A6200BF1C37BD46D0
:103B800080BC704780B487B000AFF860B9607A60DD
:103B9000FB681B6A7B61FB681B6A23F01002FB68F1
:103BA0001A62FB689B693B613B6923F470433B618C
:103BB0007B681B033A6913433B617B6923F0A003D5
:103BC0007B61BB681B017A6913437B61FB683A69BF
:103BD0009A61FB687A691A6200BF1C37BD4680BCD7
:103BE000704780B487B000AFF860B9607A603B601E
:103BF000FB681B6A7B61FB681B6A23F48072FB68AD
:103C00001A62FB68DB693B613B6923F003033B619C
:103C10003A697B6813433B613B6923F0F0033B61E6
:103C20003B681B01DBB23A6913433B617B6923F4B8
:103C300000737B61BB681B0203F400737A69134352
:103C40007B61FB683A69DA61FB687A691A6200BFD6
:103C50001C37BD4680BC704780B487B000AFF860A9
:103C6000B9607A603B60FB681B6A7B61FB681B6A1A
:103C700023F48052FB681A62FB68DB693B613B6995
:103C800023F440733B617B681B023A6913433B6139
:103C90003B6923F470433B613B681B039BB23A6969
:103CA00013433B617B6923F400537B61BB681B03B7
:103CB00003F400537A6913437B61FB683A69DA6164
:103CC000FB687A691A6200BF1C37BD4680BC70472A
:103CD00080B485B000AF786039607B689B68FB601A
:103CE000FB6823F07003FB603A68FB68134343F002
:103CF0000703FB607B68FA689A6000BF1437BD4613
:103D000080BC704780B487B000AFF860B9607A605B
:103D10003B60FB689B687B617B6923F47F437B612D
:103D20003B681A027B681A43BB6813437A691343E2
:103D30007B61FB687A699A6000BF1C37BD4680BC16
:103D4000704780B487B000AFF860B9607A60BB6834
:103D500003F01F03012202FA03F37B61FB681A6A76
:103D60007B69DB431A40FB681A62FB681A6ABB680E
:103D700003F01F03796801FA03F31A43FB681A6220
:103D800000BF1C37BD4680BC7047000080B485B0C2
:103D900000AF786039607B6893F83C30012B01D12B
:103DA000022346E07B68012283F83C207B680222E4
:103DB00083F83D207B681B685B68FB607B681B6841
:103DC0009B68BB60FB6823F07003FB603B681B686B
:103DD000FA681343FB607B681B68FA685A607B686B
:103DE0001B68164A93420ED07B681B68B3F1804F64
:103DF00009D07B681B68124A934204D07B681B6819
:103E0000104A93420CD1BB6823F08003BB603B682F
:103E10005B68BA681343BB607B681B68BA689A60CA
:103E20007B68012283F83D207B68002283F83C20D8
:103E3000002318461437BD4680BC7047002C014053
:103E4000000400400008004080B483B000AF7860F8
:103E500000BF0C37BD4680BC704780B483B000AF54
:103E6000786000BF0C37BD4680BC7047002B2DE941
:103E7000F0471D46BBBF03F100431D4600232D2321
:103E800088B01446B8BF1446129A109E1370149B43
:103E9000DDF84CA023F02008B8F1460F05D0B8F1AA
:103EA000450F00D10136022300E0032307AA049244
:103EB00006AACDE902A2CDE9003622462B4601F042
:103EC00083F8B8F1470F074619D1119BDB070ED5D0
:103ED00000EB06090022002320462946FCF764FD7A
:103EE00008B1CDF81C903022079B4B451ED33846B5
:103EF000079B159ADB1B136008B0BDE8F087B8F18B
:103F0000460F00EB0609E5D10378302B0AD10022D9
:103F1000002320462946FCF747FD18B9C6F10106E3
:103F2000CAF80060DAF800309944D3E7591C0791C9
:103F30001A70D9E7F7B50029B6BF2D232B234942C4
:103F400009290270437029DD0DF107031D460A2778
:103F5000B1FBF7F61A4607FB1614303402F8014C91
:103F60000C46632C314603F1FF33F1DC3031941EF3
:103F700003F8011C2346411CAB420AD30DF109038F
:103F80009B1AAC4288BF002302330344181A03B0C3
:103F9000F0BD13F8016B01F8016FEDE7302330310C
:103FA0008370C170031DF1E72DE9F04F91B00C460D
:103FB000DDF8688016461F46054600F0F1FE0368EE
:103FC00018460893FCF7C4F800230E93D8F8003085
:103FD0000990073323F0070303F1080294F818A0AF
:103FE000D4F800B0C8F80020D3E9008929F00043D4
:103FF0000B93CDF828804FF0FF32DDE90A01C4E9C8
:1040000012899C4BFCF702FD70BBDDE90A014FF001
:10401000FF32984BFCF7DCFC30BB0022002340460B
:104020004946FCF7CBFC10B12D2384F84330924A6B
:10403000924BBAF1470F94BF9046984603234FF036
:10404000000923612BF004032360334621462846F0
:1040500000970FAA00F0D4F9013040F090804FF0A3
:10406000FF3011B0BDE8F08F42464B46404649460E
:10407000FCF7CCFC48B14B46002BB8BF2D23804A3F
:10408000B8BF84F843307F4BD3E763680AF0DF01A1
:104090005A1C3FD10623636000224BF480632360E7
:1040A00006920EAACDE904A20DAA03920DF13302E5
:1040B000CDE9013263684246009328464B460A9197
:1040C000FFF7D4FE0A99804647290D9928D1C81CCC
:1040D00002DB6368994240DDAAF1020A5FFA8AFABC
:1040E0005246013904F150000D91FFF723FF0E9A5B
:1040F00081461318012A236102DC2268D20701D508
:10410000013323619DF83330002B9ED02D2384F89A
:1041100043309AE74729BFD1002BBDD10123BAE72D
:10412000BAF1650FDCD9BAF1660F18D100296368BE
:104130000BDD216113B92268D00702D501330B448E
:1041400023614FF00009A165DCE713B92268D207AB
:1041500001D50233F4E70123F2E74FF0670A0E9B23
:10416000994205DB23682161D807EAD54B1CE7E7B4
:104170000029CCBF0122C1F102021344E0E7236809
:104180005A0507D42369424631462846B8470130CC
:104190002BD164E7BAF1650F40F2DC80D4E912015B
:1041A00000220023FCF700FC002833D00123314615
:1041B0002846354AB84701303FF451AFDDE90D38A4
:1041C000434502DB2368D8070FD5DDE908233146D4
:1041D0002846B84701303FF442AF4FF0000908F1DC
:1041E000FF3804F11A0AC84509DC23689B0700F16F
:1041F0000281E0680F9B9842B8BF184631E701235F
:10420000524631462846B84701303FF428AF09F1FD
:104210000109E8E70D9B002B38DC012331462846D5
:10422000194AB84701303FF41AAFDDE90D3959EAB0
:10423000030302D12368D907D7D5DDE90823314626
:104240002846B84701303FF40AAF4FF0000A04F1A6
:104250001A0B0D9B5B42534501DC4B4693E7012350
:104260005A4631462846B84701303FF4F8AE0AF1C5
:10427000010AEEE7FFFFEF7FAE850008B285000878
:10428000B6850008BA850008BE850008A36DDDF874
:1042900038A05345A8BF5346002B994636DC4FF053
:1042A000000B29EAE97904F11A02A36D0A93A3EB42
:1042B00009035B4531DC0D9B9A453ADC2368DA073C
:1042C00037D40D9BAAEB03090A9BAAEB030399457C
:1042D000A8BF9946B9F1000F33DC4FF0000829EA76
:1042E000E97904F11A0B0D9BAAEB0303A3EB090375
:1042F00043457FF77AAF01235A4631462846B847EF
:1043000001303FF4ACAE08F10108ECE7424631461B
:104310002846B8470130C2D1A1E6012331462846DC
:104320000A92B84701303FF49AAE0A9A0BF1010B9A
:10433000BBE73146DDE908232846B8470130C0D144
:104340008DE60A9A4B46314628464244B84701302A
:10435000C3D184E6DDF838A0BAF1010F01DCDB0738
:1043600036D50123424631462846B84701303FF44E
:1043700076AEDDE9082331462846B84701303FF4E0
:104380006EAED4E91201002200230AF1FF3AFCF7D5
:104390000BFBC0B9534608F1010231462846B84725
:1043A00001300CD15BE601235A4631462846B84716
:1043B00001303FF454AE08F10108D045F3DB4B4621
:1043C00004F15002E0E64FF0000804F11A0BF4E7A4
:1043D00001234246E1E701234A4631462846B847D1
:1043E00001303FF43CAE08F10108E3680F995B1A15
:1043F0004345F0DCFDE64FF0000804F11909F4E74D
:104400002DE9F047164698468A680B69074693429D
:10441000B8BF1346336091F843200C46DDF8209076
:104420000AB1013333602368990642BF336802330F
:104430003360256815F0060506D104F1190AE36812
:1044400032689B1AAB422BDC94F843302268003B65
:1044500018BF0123920630D44146384604F1430286
:10446000C847013023D02368226903F00603042BD8
:1044700014BF002533684FF0000608BFE56804F15B
:104480001A0408BFED1A54F8123C08BF25EAE57576
:104490009342C4BF9B1AED18B5421AD1002008E020
:1044A0000123524641463846C847013003D14FF0F8
:1044B000FF30BDE8F0870135C1E73020E11881F811
:1044C00043005A1C94F845102244023382F84310EA
:1044D000C2E70123224641463846C8470130E6D0AC
:1044E0000136D9E72DE9FF470F7E9146782F8046A8
:1044F0000C469A460C9E01F1430207D8622F0AD857
:10450000002F00F0D380582F00F0BA8004F142064B
:1045100084F842703AE0A7F16303152BF6D801A1A5
:1045200051F823F07D450008914500080D4500082D
:104530000D4500080D4500080D450008914500088F
:104540000D4500080D4500080D4500080D45000803
:1045500093460008BB4500084D4600080D4500087D
:104560000D450008B54600080D450008BB4500088C
:104570000D4500080D4500085546000833681A1D12
:104580001B68326004F1420684F8423001239EE049
:1045900033682068191D3160060601D51D6803E0E7
:1045A0004506FBD5B3F90050002D03DA2D236D42EB
:1045B00084F843300A23594811E02168336808061B
:1045C00053F8045B02D4490648BFADB26F2F336085
:1045D00014BF0A2308235148002184F84310666859
:1045E000002EA8BF2168A660A4BF21F004012160AD
:1045F0000DB9002E4BD01646B5FBF3F103FB115756
:10460000C75D06F8017D2F46BB420D46F4D9082B45
:104610000BD12368DF0708D5236961689942DEBFA3
:10462000302306F8013C06F1FF36921B22614B460F
:1046300021464046CDF800A003AAFFF7E1FE013075
:104640004AD14FF0FF3004B0BDE8F087236843F053
:10465000200323607827324884F845702368316846
:104660001F0651F8045B02D45F0648BFADB231604B
:10467000D90744BF43F0200323601DB11023ABE7EB
:104680002648E9E7236823F020032360F6E716466F
:10469000BDE733682568181D616930602E061B6808
:1046A00001D5196002E06806FBD519800023164683
:1046B0002361BCE7336800211A1D32601E686268FE
:1046C000304600F0E4FB08B1801B60606368236142
:1046D000002384F84330AAE732464946404623691E
:1046E000D0470130ADD023689B0713D4E068039B0B
:1046F0009842B8BF1846A6E70123324649464046CD
:10470000D04701309DD00135E36803995B1AAB4275
:10471000F2DCEBE7002504F11906F5E7C085000897
:10472000D18500082DE9F04F87B003938B681746B9
:104730005A1EB2F5AE7F82BF6FF4AE7503EB050B68
:1047400040F25D130A464FF0000588BF8B600B688E
:10475000804643F4F06342F81C3B0C4698BF4FF090
:10476000000B1646AA46A946CDE9045501920295CA
:10477000A26852B13B681B784E2B65D8402B3DD8C0
:10478000A3F12B01C8B20E283BD9B9F1000F03D019
:10479000236823F4807323600AF1FF3ABAF1010F12
:1047A00000F21881019B9E4200F20981012007B0AE
:1047B000BDE8F08FA3F161020D2AE6D801A151F8FE
:1047C00022F000BF0B4900088B4700088B47000808
:1047D0008B4700086B490008434900088B470008D5
:1047E0008B470008194900088B4700088B470008D1
:1047F0008B4700088B470008D1480008A3F141020D
:10480000DAE70E29C1D801A050F821F0C14800080C
:104810008B470008C1480008574900088B4700082B
:1048200069480008A7480008A7480008A7480008EA
:10483000A7480008A7480008A7480008A74800089C
:10484000A7480008A74800086E2B09D8602BB1D8EC
:10485000542B7BD0592B98D1072D96D108252CE0CD
:10486000742B73D0792BF6E72168C8051BD521F08E
:104870008001216009F10109BBF1000F03D0013271
:104880000BF1FF3BA260A368013BA36023690133E6
:1048900023617B68013B002B7B6040F387803B6892
:1048A00001333B6064E71AEB05017FF46EAF0D4600
:1048B0008A46226822F4C072226006F8013BE2E7D1
:1048C000226810067FF561AF22F080022260F4E7D3
:1048D000BAF1000F0ED1B9F1000F0ED1226802F427
:1048E000E061B1F5E06F08D122F4F0624FF0010A07
:1048F0002260E2E7BAF1020F55D0012D02D0042D5B
:104900007FF443AF0135EDB2D7E7BAF1010F7FF481
:104910003CAF4FF0020AD0E77DB9B9F1000F7FF448
:1049200037AF226802F4E061B1F5E06F40F0038137
:1049300022F4F06201252260BFE7032DE2D0052DAD
:10494000DEE7022D7FF421AF0325B6E7062D7FF4C5
:104950001CAF0725B1E7226891057FF516AF22F459
:1049600020722260CDF80890A7E7226802F4A061C7
:10497000B1F5806F06D050057FF507AFB9F1000F94
:1049800000F0D980910558BF029922F4F06258BF17
:10499000A9EB010142F4C0724FF0000958BFCDE904
:1049A0000416226089E74FF0030A86E7394640463D
:1049B000D4F88031984700283FF4DAAEE5E6D4F821
:1049C0007C313A46404616F8011D98472369013B61
:1049D0002361E7E66B1E062B24D8022D36D8019BF7
:1049E0009E427FF6E3AED4F87C313A46404616F854
:1049F000011D98472369013B2361F0E7D4F87C311E
:104A00003A4640461BF8011D98472369013B236144
:104A10000AF1FF3A5FFA8AFABAF1020FEED1033DCA
:104A2000EDB2761B2368DA0530D55B0511D5019B05
:104A30009E427FF6BBAED4F87C313A46404616F82B
:104A4000011D98472369013B2361F0E7AA46B3465D
:104A5000DEE716F8011C2369652903F1FF3306F12F
:104A6000FF3523610CD045290AD0D4F87C313A4671
:104A700040469847236916F8021C013BB51E236186
:104A80003A464046D4F87C3198472E46226812F0C8
:104A9000100201D000208AE63270236803F4C0635C
:104AA000B3F5806F1CD1029B4B45A3EB090223D1C8
:104AB00000224046019902F0EFFB039B25681B682A
:104AC00015F0020F06460F4603F104021FD00399AA
:104AD0000A601B68C3E90067E3680133E360D9E754
:104AE000049B002BE4D005990A234046013102F0D3
:104AF00053FC049B059EC21A04F26F139E4228BF0A
:104B000004F5B77630460D4900F0DEF8D0E76D07C2
:104B1000DDD4039D2A601D6802460B46FBF776FF35
:104B200020B1074800F0C2F92860D5E73046394681
:104B3000FBF7CAFFF8E74FF000092DE6E285000811
:104B40007D890008002310B50446C0E90033C0E9A0
:104B50000433836081814366C281836119460822E0
:104B60005C3000F014F90D4B246263620C4BA362BD
:104B70000C4BE3620C4B23630C4B9C4206D003F1BD
:104B80006802944202D0D0339C4205D104F158000F
:104B9000BDE8104000F078B910BD00BF094D000815
:104BA0002B4D0008634D0008874D0008E0020020EF
:104BB000024A0349034800F069B800BF0C00002016
:104BC0004D7700081C00002041680C4B10B599423D
:104BD000044601D002F0BAFDA168094B994202D007
:104BE000204602F0B3FDE168064B994204D020460E
:104BF000BDE8104002F0AABD10BD00BFE0020020D9
:104C000048030020B003002010B50B4B0B4C0C4A9E
:104C100020461A6004210022FFF794FF04F1680087
:104C200001220921FFF78EFF04F1D0000222BDE826
:104C300010401221FFF786BF18040020E002002078
:104C4000B14B0008014800F020B900BF210400204A
:104C5000014800F01BB900BF2104002010B5044634
:104C6000FFF7F0FF236A1BB1BDE81040FFF7F0BF6C
:104C7000044B2362044B1B68002BF5D1FFF7C4FFE4
:104C8000F2E700BFC94B0008180400202DE9F843E3
:104C90000746884614460026D4E90195B9F1010972
:104CA00005D52468002CF7D13046BDE8F883AB89E0
:104CB000012B07D9B5F90E30013303D02946384608
:104CC000C04706436835E9E70EB46FF0004100B510
:104CD0009CB01DAB029006900791049108480949C9
:104CE00053F8042B0591006802A9019302F0B2FB6E
:104CF0000022029B1A701CB05DF804EB03B07047F1
:104D0000180000200802FFFF10B50C46B1F90E1084
:104D100000F06CF80028ABBF636DA3891B1823F467
:104D20008053ACBF6365A38110BD2DE9F0411F46E0
:104D30008B890546DB050C46164605D50223002265
:104D4000B1F90E1000F040F8A389324623F48053E5
:104D5000A38128463B46B4F90E10BDE8F04100F0AF
:104D600057B810B50C46B1F90E1000F02DF8431CE1
:104D7000A38915BF606523F4805343F48053A38156
:104D800018BFA38110BDB1F90E1000F00DB8034695
:104D90000244934200D1704703F8011BF9E7000079
:104DA000004870475801002038B50023054D0446DF
:104DB00008462B60FCF7DBFF431C02D12B6803B1D4
:104DC000236038BD1C04002038B50446084611464F
:104DD0000022054D2A601A46FCF7EDFF431C02D164
:104DE0002B6803B1236038BD1C04002038B504468D
:104DF000084611460022054D2A601A46FCF77EFF40
:104E0000431C02D12B6803B1236038BD1C04002071
:104E100038B50446084611460022054D2A601A4658
:104E2000FCF789FF431C02D12B6803B1236038BD16
:104E30001C040020014B1868704700BF18000020B8
:104E400070B500260C4D0D4C641BA410A64209D170
:104E500003F068FB00260A4D0A4C641BA410A6420E
:104E600005D170BD55F8043B98470136EEE755F87B
:104E7000043B98470136F2E7E8890008E889000812
:104E8000E8890008EC8900087047704770470346BE
:104E900010B5C9B202449342184601D1002003E084
:104EA000047801338C42F6D110BD000000487047F1
:104EB0000000C07F2DE9F74F03690C690746A34244
:104EC0007EDB013CA30000F1140501F114080093FE
:104ED00005EB8403019358F8243055F8242001335E
:104EE0009A42B2FBF3F608EB84092ED34FF0000A86
:104EF000C446AE46D3465CF8043B98B206FB00A01D
:104F00001B0C020C06FB0323DEF8002080B292B2D9
:104F1000121A5A44DEF800004FEA134A9BB2C3EB60
:104F2000224303EB104392B242EA0342E1454FEAC7
:104F3000234B4EF8042BDED2009BEB582BB9019B80
:104F4000043B9D421A462FD33C61384601F0C4F918
:104F5000002825DB2946002058F8042BD1F800C092
:104F60001FFA82FE1FFA8CF3A3EB0E030344120C0C
:104F7000C2EB234202EB1C429BB243EA0243C1450F
:104F80004FEA224041F8043BE6D255F8242005EBD5
:104F9000840322B9043B9D421A460BD33C6101367F
:104FA000304603B0BDE8F08F1268043B002ACBD135
:104FB000013CC6E71268043B002AEFD1013CEAE756
:104FC0000020EEE7000000002DE9F04F14461D46DA
:104FD000C76997B08346CDE90245239E7FB910206B
:104FE00000F002FE0246CBF81C0020B9EF21A84BCE
:104FF000A84802F023FCC0E901770760C760DBF82E
:105000001C30196859B15A68012393404A608B607B
:10501000584600F0DFFE0022DBF81C301A602B1E21
:10502000AFBF0023012223F000430393A8BF3360E6
:10503000DDF80C80984BB8BF326033EA080312D118
:1050400042F20F73229A1360C8F31303234300F054
:105050005085249BDFF844A2002B00F052850AF112
:10506000030300F04CBDDDE90223CDE90C23DDE9AB
:105070000C0100220023FBF797FC074658B10123DF
:10508000229A1360249B13B1854B249A1360DFF896
:1050900014A200F036BD14AB019315AB0093584633
:1050A000DDE90C2301F030FAC8F30A568146002EE0
:1050B00077D0DDE90C010D9BA6F2FF36C3F3130395
:1050C00043F07F5343F44013129719460022764B66
:1050D000FBF74AF868A3D3E90023FBF7FDF968A3BF
:1050E000D3E90023FBF742F8044630460D46FBF7B0
:1050F00089F965A3D3E90023FBF7EEF902460B46D5
:1051000020462946FBF732F804460D46FBF794FC8F
:1051100000220746002320462946FBF74FFC40B1FA
:105120003846FBF76FF922462B46FBF73DFC00B9EA
:10513000013F162F53D8DDE90C015C4B03EBC7038D
:10514000D3E90023FBF73AFC00284AD00023013FB3
:105150000F93149B9B1B5A1E46BFC3F101080023EB
:105160004FF00008099248BF0993002F3BDB099BD1
:105170000E973B44099300230A93209B092B66D882
:10518000052BC4BF043B2093209BC8BF0024A3F180
:105190000203D8BF0124032B64D8DFE803F02B38C7
:1051A0003656DDE914631E4406F23243202BC1BF9C
:1051B000C3F1400308FA03F806F2124324FA03F39A
:1051C000D6BFC3F1200348EA030004FA03F0FBF75B
:1051D00009F90122A1F1F873013E129275E701234A
:1051E000B6E70F90B5E77B420A930023A8EB0708C8
:1051F0000E93C2E700230B93219B002B35DC012388
:105200001A46CDE9073321920BE00123F3E700238F
:105210000B93219BFB1808930133012B0793B8BF15
:10522000012300210422DBF81C0002F114059D4239
:105230001FD94160584600F08DFD8246002839D1C3
:10524000024640F2AF111A4BD2E60123E0E70124F7
:1052500000230B9420934FF0FF330022CDE9073356
:105260001223D0E701230B93F5E7219BCDE9073308
:10527000D7E701315200D8E761436F63A787D23F78
:10528000B3C8608B288AC63FFB799F501344D33F35
:10529000F48500080B8600080000F07FF085000808
:1052A000BF850008BE8500080000F83F0887000899
:1052B00063860008DBF81C301860079B0E2B00F299
:1052C000A480002C00F0A180002F33DD864B07F076
:1052D0000F0203EBC203F805D3E90034CDE904342F
:1052E0004FEA271416D5DDE90C01804B0326D3E9DC
:1052F0000823FBF71BFACDE9020104F00F047B4DF4
:1053000054B9DDE90423DDE90201FBF70FFACDE929
:10531000020128E00226F2E7E10708D5DDE90401F1
:10532000D5E90023FBF7D8F8CDE904010136641074
:105330000835E5E700F0D280DDE90C017C426A4BDC
:1053400004F00F0203EBC203D3E90023FBF7C4F818
:1053500002260023CDE90201644D2411002C40F007
:10536000B280002BD3D1DDE902450F9B002B00F06A
:10537000B7800022204629465D4BFBF71FFB002823
:1053800000F0AE80079B002B00F0AA80089B002B4A
:1053900037DD7B1E2046049300222946554BFBF740
:1053A0009BF8CDE90201089C01363046FBF72AF84C
:1053B000DDE90223FBF790F800224F4BFAF7D6FE07
:1053C0000546A1F15076002C40F09A80DDE90201FB
:1053D00000224A4BFAF7C8FE02460B46CDE90223EB
:1053E0002A463346FBF708FB002840F08E82DDE9B1
:1053F00002012A4606F10043FBF7E0FA002840F0DC
:105400002781DDE90C34CDE90234159B002BC0F275
:1054100063810E2F00F36081334B03EBC703D3E9A5
:105420000034CDE90434219B002B03DA079B002BC9
:1054300040F30081DDE902455646DDE904232046BC
:105440002946FBF773F9FBF7F7FA8046FAF7DAFF1C
:10545000DDE90423FBF740F802460B4620462946C7
:10546000FAF782FE08F13004079D06F8014BA6EB1F
:105470000A04A54202460B4640F01681FAF776FE72
:10548000DDE9042304460D46FBF7B6FA002840F098
:10549000F880DDE9042320462946FBF785FA18B198
:1054A00018F0010F40F0ED804946584600F092FC9C
:1054B00000233370229B01371F60249B002B00F0D8
:1054C00020831E601DE3E20705D5D5E90023FBF725
:1054D00003F801230136641008353FE7022642E74E
:1054E000079C049761E700BF08870008E086000872
:1054F0000000F03F0000244000001C400000144069
:10550000704B0B9903EBC40353E902235444002965
:1055100045D000206C49FBF709F933462A46FAF7D3
:1055200023FE5646CDE91001DDE90201FBF784FABE
:105530000546FAF767FF02460B46DDE90201FAF776
:1055400013FE02460B463035CDE90223DDE9102378
:1055500006F8015BFBF732FA002863D1DDE902238C
:1055600000205A49FAF700FEDDE91023FBF726FA7E
:10557000002840F08780A6423FF443AFDDE91001E8
:105580000022534BFAF7A8FF0022CDE91001DDE914
:1055900002014F4BFAF7A0FFCDE90201C4E7314603
:1055A0002846FAF799FF5646CDE910011394DDE934
:1055B0000201FBF741FA0546FAF724FF02460B46C3
:1055C000DDE90201FAF7D0FD02460B46303506F858
:1055D000015BA642CDE902234FF0000224D1DDE9B0
:1055E0001001394BFAF7C2FD02460B46DDE9020114
:1055F000FBF702FA002845D1DDE9102300203249EB
:10560000FAF7B2FD02460B46DDE90201FBF7D6F9D7
:1056100000283FF4F6AE139E731E139316F8013C58
:10562000302BF8D0049F3FE7294BFAF755FFCDE91F
:105630000201BCE70CD1DDE904010022254BFAF799
:105640004BFFDDE90223FBF7CDF9002800F05B8179
:1056500000242546219B5646DB4304930027214620
:10566000584600F0B7FB002DDCD02FB1AF4203D07D
:105670003946584600F0AEFB2946584600F0AAFBD2
:10568000D0E7049733461E4613F8012D392A07D177
:105690009A45F8D1049A0132049230228AF8002007
:1056A0001A7801321A70BDE70022094BFAF714FF8D
:1056B0000022002304460D46FBF776F900283FF44C
:1056C000BCAEF1E6088700080000E03F0000F03FB4
:1056D00000002440000014400B9A002A00F0DB80F8
:1056E000209A012A00F3BF80129A002A00F0B780A6
:1056F00003F2334346460A9C099A01211A4458464C
:105700009844099200F064FC05465EB1099B002BA9
:1057100008DDB342A8BF3346099AA8EB0308F61A7E
:10572000D31A09930A9BF3B10B9B002B00F0B780AF
:105730008CB129462246584600F008FD4A460146EB
:105740000546584600F05AFC49460490584600F079
:1057500041FB049B99460A9B1A1B04D049465846B4
:1057600000F0F4FC81460121584600F031FC0E9B0C
:105770000446002B00F0C9811A460146584600F045
:10578000E5FC209B0446012B00F38F80029B002B3D
:1057900040F08780039BC3F31303002B40F083800A
:1057A000039B23F000431B0D1B052BB1099B08F144
:1057B00001080133099301230A930E9B002B00F08B
:1057C000AA81236904EB8303186900F0B5FBC0F1DB
:1057D0002000099B184410F01F0071D0C0F1200375
:1057E000042B65DD099BC0F11C0003448044064482
:1057F0000993B8F1000F05DD49464246584600F0CE
:10580000FFFC8146099B002B05DD21461A465846C0
:1058100000F0F6FC04460F9B002B53D0214648466F
:1058200000F05AFD00284DDA7B1E494604930A22F7
:105830000023584600F0F0FA0B9B8146002B00F045
:105840006C81002329460A22584600F0E5FA089B9D
:105850000546002B61DC209B022B3BDC5DE0149BAA
:10586000C3F1360346E7079B5C1E0A9BA342BFBFFA
:105870000A9B0E9AE31AD218A8BF1C1B079BBEBF37
:105880000A940E920024002BB5BFA8EB03064646EF
:105890000023079B30E746460A9C0B9D35E70A9A92
:1058A0005CE7002388E7029B86E700230A9388E7EA
:1058B0009FD0099A1C331A4498441E44099298E7D1
:1058C0000346F6E7079B0497002B20DC0893209BF8
:1058D000022B1EDD089B002B7FF4BCAE2146052267
:1058E000584600F099FA01460446484600F0F4FC98
:1058F00000287FF7AFAE3123564606F8013B049BE4
:1059000001330493AAE6079C04972546F3E7079B17
:1059100008930B9B002B00F00481002E05DD294627
:105920003246584600F06CFC05460A9B002B5AD0C4
:105930005846696800F00EFA064628B9024640F259
:10594000EF21834BFFF754BB2A6905F10C010232AA
:1059500092000C3001F05EFF01223146584600F003
:105960004FFC2F4605460AF101030793089B534459
:105970000B93029B03F001030A93079B2146013B13
:1059800048460293FFF796FA3946089000F130082E
:10599000484600F0A1FC2A4609902146584600F0EE
:1059A000B7FCC268064602BB0146484600F094FCBC
:1059B0000246314658460C9200F00CFA209B0C9A95
:1059C000079E43EA02010A9B194310D1B8F1390F2F
:1059D00029D0099B002B02DD089B03F13108029BB3
:1059E00083F800803BE62846BBE70122E1E7099BFC
:1059F000002B04DB20990B430A990B4320D1002A8A
:105A0000EDDD49460122584600F0FAFB2146814669
:105A100000F062FC002803DCE1D118F0010FDED0B9
:105A2000B8F1390FD8D13923029A137033461E4684
:105A300016F8012C013B392A52D001321A700EE6B9
:105A4000002A07DDB8F1390FEDD0029A08F1010301
:105A5000137004E6079B079A03F8018C0B9B934293
:105A600028D0494600230A22584600F0D5F9AF4213
:105A700081464FF000034FF00A023946584607D1DD
:105A800000F0CAF907460546079B0133079374E700
:105A900000F0C2F92946074600230A22584600F0C2
:105AA000BBF90546F0E7089B0027002BCCBF1E463C
:105AB0000126564449460122584600F0A1FB2146E2
:105AC000814600F009FC0028B0DC02D118F0010F7B
:105AD000ACD133461E4613F8012D302AFAD0BEE56C
